:020000040800F2
:10000000980700208901000891210008E91B0008D9
:100010008D21000845020008B12100080000000001
:10002000000000000000000000000000992100080E
:100030004902000800000000952100089D210008E9
:10004000A3010008A3010008A3010008A301000800
:10005000A3010008A3010008A3010008A3010008F0
:10006000A3010008A3010008A3010008A3010008E0
:10007000A3010008A3010008A3010008A3010008D0
:10008000A3010008A3010008A3010008A3010008C0
:10009000A3010008A3010008A3010008A3010008B0
:1000A000A3010008A3010008A3010008A3010008A0
:1000B000A3010008A3010008A5210008A30100086E
:1000C000A3010008A3010008A3010008A301000880
:1000D000A3010008A3010008A3010008A301000870
:1000E0004D020008A3010008A301000800F002F877
:1000F00000F03AF80AA090E8000C82448344AAF188
:100100000107DA4501D100F02FF8AFF2090EBAE885
:100110000F0013F0010F18BFFB1A43F0010318473B
:10012000D4230000F4230000103A24BF78C878C11B
:10013000FAD8520724BF30C830C144BF04680C60ED
:10014000704700000023002400250026103A28BF35
:1001500078C1FBD8520728BF30C148BF0B60704739
:100160001FB51FBD10B510BD00F031F81146FFF7E7
:10017000F7FF02F01FF800F04FF803B4FFF7F2FFAB
:1001800003BC00F057F800000948804709480047C1
:10019000FEE7FEE7FEE7FEE7FEE7FEE7FEE7FEE737
:1001A000FEE7FEE704480549054A064B7047000094
:1001B000A1210008ED000008980100209807002008
:1001C00098030020980300207047704770477546D9
:1001D00000F02CF8AE4605006946534620F00700B3
:1001E000854618B020B5FFF7DDFFBDE820404FF091
:1001F00000064FF000074FF000084FF0000BAC4630
:10020000ACE8C009ACE8C009ACE8C009ACE8C0097A
:1002100021F007018D46704710B50446AFF300800A
:100220002046BDE81040FFF7A8BF00000048704717
:100230001000002001491820ABBEFEE72600020096
:1002400070470000FEE700007047000080B54FF4E3
:10025000005000F0C5F84FF4804000F0C1F84FF4B2
:100260000040BDE8804000F0BBB80000EFF3108014
:1002700072B600BFFEE70000B0B5044600F0D2F948
:10028000054640F20000C2F200000078611C18BF71
:10029000044400BF00F0C6F9401BA042FAD3B0BD31
:1002A00070B540F600450A20C4F20105FFF7E4FFEF
:1002B00005F5806420464FF4005100F0A7F90028AE
:1002C00073D128464FF48051012200F0A5F9C820CF
:1002D000FFF7D2FFA5F5806630464021012200F0ED
:1002E0009BF928464FF40051012200F095F9C820EF
:1002F000FFF7C2FF30462021012200F08DF9284689
:100300004FF48041012200F087F9C820FFF7B4FFC5
:1003100030461021012200F07FF928464FF40041B9
:10032000012200F079F9C820FFF7A6FF304610211E
:10033000002200F071F930462021002200F06CF913
:1003400030464021002200F067F928464FF48051E2
:10035000002200F061F928464FF40051002200F01D
:100360005BF928464FF48041002200F055F92846F9
:100370004FF40041002200F04FF9C820FFF77CFF46
:1003800030461021012200F047F940F27005C2F218
:1003900000052846002101F0ABFA4FF4FA70FFF790
:1003A0006BFF2846002101F013FB20464FF48041EB
:1003B00000F02CF928B940F29010C2F2000001219F
:1003C000017020464FF4004100F020F9002818BFCA
:1003D00070BD40F29010C2F200000021017070BDAB
:1003E00040F21441C4F201010A68024214BF0860DD
:1003F0007047FFF755BF00002DE9F04F82B041F282
:100400000042C4F201020E680423904208BF032395
:10041000002E009300F0F68040F2004C4FF6FF7E75
:100420000022C4F2010C0124C1F2100E4FF0000AA8
:100430004FF0000947E000BF012502F00C040F2730
:10044000A7402BEA070705FA04F43C4343F826408B
:10045000D1F804B040F20C455FEACB23DCF8083059
:1004600054BF23EA080343EA0803C4F20105CCF8A9
:1004700008302B685FEA8B2454BF23EA080343EA61
:1004800008032B605FEA8B34DCF8043054BF23EAA6
:10049000080343EA08035FEACB34CCF80430DCF805
:1004A00000304FF0010454BF23EA080343EA080375
:1004B000CCF800300E680AF1010A36FA0AF302F1AC
:1004C000040200F09F8004FA0AF816EA080FF1D03F
:1004D0004B68734512DC122B56D8DFE803F0350B5E
:1004E0004549555555555555555555555555554DE0
:1004F000510000BFD1F80C9046E000BF4FF6FF75E9
:10050000C1F22105AB420FDC0025C1F21105AB425F
:100510001AD00025C1F21205AB4215D00025C1F258
:100520002105AB4210D02FE00025C1F22205AB42DD
:100530000AD00025C1F23105AB4205D00025C1F239
:100540003205AB4220D100BF8B684BB1012B14BFE9
:10055000C0F81480C0F810804FF0080914E000BF04
:100560004FF0040910E000BFCB6803F108090BE06D
:100570004FF0000908E000BFCB6803F1040903E075
:10058000CB6803F10C0900BF13460546BAF1080F0A
:1005900024BF203B04352E680F279F40BE4309FA35
:1005A00003F333432B60CB79DB067FF583AF41F256
:1005B0001804C4F2020423684FEA9A0643F00103C8
:1005C0002360236840F6000403F001030193019BBC
:1005D000ACF57E7353F826B0C4F20104A0420FD0EC
:1005E00040F60044C4F20104A0423FF425AF41F2BA
:1005F0000004C4F20104009DA04208BF02251CE7CC
:1006000000251AE702B0BDE8F08F000080680840BE
:1006100018BF012070470000002A08BF09040161CB
:100620007047000040F29410C2F20000006870476A
:1006300040F2000040F29411C2F20000C2F2000148
:1006400000780A68104408607047000080B542F2E4
:100650000000C4F20200016841F0100101600320B3
:1006600000F08AF8002000F005F800F027F80020DC
:1006700080BD000070B540F20006C2F2000640F2F4
:1006800008013278C2F200014FF47A730968B3FBB3
:10069000F2F20446B1FBF2F1084600F05FFB0F2CCA
:1006A0004FF0010508D838B94FF0FF30214600223D
:1006B000002500F035F87460284670BD82B041F224
:1006C0001800C4F202000168022241F00101016039
:1006D000016801F0010101910199416841F08051E7
:1006E0004160406800F08050009000980420C4F2FF
:1006F0000100016862F31A61016002B070470000F6
:10070000002848BF704700F01F01012202FA01F1E2
:100710004EF200124009CEF2000242F8201070475B
:1007200010B54EF60C5CCEF2000CDCF80030C3F3D2
:10073000022E8EF00704042C28BF0424BEF103030C
:100740004FF0FF3E0EFA04F438BF0023A143994056
:100750000EFA03F39A43114300F00F02043A624485
:1007600009010C3200F16043B0F1FF3FC8BF03F54F
:100770006442117010BD00004EF60C51CEF2000123
:100780000A684FF6FF031A4060F30A2242F08060C5
:1007900040F0FD70086070472DE9F04381B00028FB
:1007A00000F0858042F20008C4F202080446D8F83E
:1007B00000000D4600F0070088420CD2D8F8000077
:1007C00020F007002843C8F80000D8F8000000F027
:1007D0000700A8426BD1206841F204098107C4F2E6
:1007E000020917D5410705D5D9F8001041F4E06199
:1007F000C9F80010010705D5D9F8001041F460517F
:10080000C9F80010D9F80010A26821F0F0011143D6
:10081000C9F80010C00741D1D8F8000000F0070067
:10082000A8420CD9D8F8000020F007002843C8F8E7
:100830000000D8F8000000F00700A84237D1206877
:10084000410707D5D9F80010E26821F4E0611143AF
:10085000C9F80010000708D5D9F80000216920F474
:10086000605040EAC100C9F80000D9F8002002F049
:100870000C00082841F20020C0F27A0050D142F268
:10088000E243C2F38341C0F60003595CD2033BD478
:1008900040F60010C0F23D00484341E06068022885
:1008A0000AD001282AD159F8041C890308D4012050
:1008B00001B0BDE8F08300BF59F8041C8901F6D5EA
:1008C000D9F8001021F003010843C9F80000FFF730
:1008D000A9FE064641F28837D9F80000616800F0A9
:1008E0000C00B0EB810F97D0FFF79CFE801BB84245
:1008F000F2D9032001B0BDE8F08300BF59F8041C11
:100900008907D4D5DCE700BFD9F8002042F2E043E4
:10091000C2F34042C0F600039A5C4843B0FBF2F0D9
:10092000D9F8001042F2C842C1F30311C0F6000228
:10093000515C40F2080220FA01F140F20400C2F2D8
:1009400000000068C2F200021160FFF793FE002071
:1009500001B0BDE8F083000040F2080041F204015C
:10096000C2F20000C4F202010068096842F2D842F3
:10097000C1F30221C0F60002515CC840704700007C
:1009800040F2080041F20401C2F20000C4F2020188
:100990000068096842F2D842C1F3C221C0F60002E1
:1009A000515CC840704700002DE9F04182B000283A
:1009B00068D00446007841F20006C007C4F202067F
:1009C00025D0706800F00C0004281BD0706800F07F
:1009D0000C00082802D17068C00313D46068002896
:1009E00000F06881B0F5A02F00F07C81B0F5803F69
:1009F00000F07C81306820F480303060306820F472
:100A0000802076E13068800301D56068D0B320781B
:100A1000800718D5706810F00C0F07D0706800F0D0
:100A20000C0008286ED17068C0036BD43068800752
:100A300002D52069012825D13068616920F0F800CD
:100A400040EAC1003060207800071FD420784007BA
:100A500032D4E56995B1706800F00C00082840F0C8
:100A60008F80012D0ED07068216A00F480328A4296
:100A700008D1616A00F47010884203D1002002B0EE
:100A8000BDE8F081012002B0BDE8F081A069002836
:100A900062D00020C4F242200121C0F88014FFF788
:100AA000C1FD0546706A800700F18C80FFF7BAFD32
:100AB000401B0228F6D92AE1F06910F0805808D1CD
:100AC000F06940F08050F061F06900F080500090D3
:100AD000009847F20007C4F200073868C00529D41F
:100AE000386840F480703860FFF79CFD054600BF11
:100AF0003868C0051ED4FFF795FD401B6428F7D960
:100B000005E100BF2069002840F20000C4F2422045
:100B100000F0828001210160FFF784FD054600BFDF
:100B2000306880073FF588AFFFF77CFD401B022847
:100B3000F6D9ECE0E068002800F08080052800F09D
:100B40009780012800F09880306A20F00100306220
:100B5000306A20F0040092E00020C4F2422000211C
:100B6000C0F88014FFF75EFD054600BF706A80077D
:100B70007FF56CAFFFF756FD401B0228F6D9C6E0A3
:100B80000027C4F2422700203866FFF74BFD022DF4
:100B900005460BD13068800140F1BE80FFF742FD71
:100BA000401B02284FF00300F4D968E73068800149
:100BB0007FF564AFFFF736FD401B02284FF00300BE
:100BC000F4D95CE740F20800C2F20000006844F685
:100BD000D351C1F26201A0FB0101480A019000BF9C
:100BE00000BF0198411E002801913FF42FAF00BFC4
:100BF0000198411E002801913FF428AF00BF0198E1
:100C0000411E002801913FF421AF00BF0198411E11
:100C100000280191E4D119E700210160FFF702FDEE
:100C2000054600BF306880077FF50DAFFFF7FAFC7F
:100C3000401B02284FF00300F4D920E7306A20F06F
:100C400001003062306A20F004003062FFF7EAFCF5
:100C5000054641F2883700BF306A800720D5FFF78C
:100C6000E1FC401BB8424FF00300F5D907E700BF95
:100C7000306A40F004003062306A40F001003062B7
:100C8000FFF7D0FC054641F2883700BF306A800785
:100C900006D4FFF7C7FC401BB842F7D937E000BFC6
:100CA000B8F1000F7FF4D5AEF06920F08050F0610C
:100CB000CFE600BF306820F480303060306820F428
:100CC00080203060FFF7AEFC054600BF306880032F
:100CD0007FF59DAEFFF7A6FC401B64284FF0030094
:100CE000F4D9CCE6306840F480203060306840F4BD
:100CF00080303060FFF796FC054600BF3068800307
:100D00003FF585AEFFF78EFC401B6428F6D9032023
:100D100002B0BDE8F08100BF206AB0F5803F05D188
:100D20007168A26821F40031114371607168626AD0
:100D300021F4741110430843706001203866FFF7F6
:100D400071FC0446306880013FF598AEFFF76AFCFD
:100D5000001B02284FF00300F4D990E6411E00204A
:100D6000B0EB116F1CBF012070474EF21002CEF2A3
:100D7000000251604EF62351CEF20001F0230B70B9
:100D800007219060116070477047000070470000B5
:100D9000B0B590F83C20012A04BF0220B0BD01F19B
:100DA00008053CCDD1E900CE23F47C5322F47052E7
:100DB0001A432EF4F0431A432CF4E0431A4324F46C
:100DC000C0431A432A43C96922F48042036811438D
:100DD0005964002180F83C100846B0BD10B590F869
:100DE0003C20012A4FF0020233D080F83D200268F7
:100DF000D2F804E0D2F808C00C682EF07003234348
:100E000040F2FF74C4F20004A24253600ADCB2F163
:100E1000804F13D040F20043C4F200039A420DD039
:100E200011E000BF42F60043C4F201039A4205D02C
:100E300040F60003C4F200039A4204D149682CF042
:100E40008003194391600121002280F83D1080F851
:100E50003C20104610BD0000002804BF0120704750
:100E600010B5044690F83D0028B9002084F83C00F5
:100E7000204600F067F8022084F83D00206840F228
:100E8000FF730268C4F2000342F6004C9842C4F2B9
:100E9000010C15DCB0F1804F1AD040F20041C4F2D1
:100EA0000001884214D0984218DCB0F1804F1DD068
:100EB00040F20041C4F20001884217D01AE000BF9E
:100EC000604505D040F60001C4F200018842EAD135
:100ED000A16822F070020A439842E6DD604505D021
:100EE00040F60001C4F20001884203D1216922F4D6
:100EF00040720A43A36922F08001D4F804E0E2685A
:100F0000194360450160C262C0F828E002D16169FE
:100F1000CCF8301001214161002084F8461084F89B
:100F20003E1084F83F1084F8401084F8411084F893
:100F3000421084F8431084F8441084F8451084F873
:100F40003D1010BD80B582B0006840F60001C4F2CB
:100F50000001884214D042F60041C4F201018842E7
:100F60000CD141F21800C4F20200016841F40061A2
:100F70000160006800F400600190019802B080BD3B
:100F800041F21800C4F202004168002241F004015D
:100F900041604068002100F00400009000981E208D
:100FA000FFF7BEFB1E2002B0BDE88040FFF7A8BBE4
:100FB00090F83D1001291CBF01207047022180F8E4
:100FC0003D10006840F2FF72C168C4F20002904216
:100FD00041F00101C16009DCB0F1804F12D040F254
:100FE0000041C4F2000188420CD012E042F60041F8
:100FF000C4F20101884205D040F60001C4F20001AC
:10100000884206D1816801F00701062904BF00204B
:101010007047016841F00101016000207047000045
:1010200080B590F83C20012A4FF0020200F0C28007
:1010300080F83D20D0F800C04FF67772DCF8083019
:1010400023EA0202CCF808200B684F2B28DC1F2B68
:1010500044DD202B45D0302B43D0402B40F0AC80DA
:10106000D1F804E0C968DCF82030DCF8202022F058
:101070000102CCF82020DCF8182022F0F00242EA2D
:10108000011123F00A0242EA0E02CCF81810CCF843
:101090002020DCF8081041F0470121F0300180E009
:1010A0006F2B27DDB3F5005F48D0B3F5805F7AD0B2
:1010B000702B40F08180D1E901E3C968DCF8082099
:1010C00043EA0E0322F47F4243EA01211143CCF8A4
:1010D0000810DCF8081041F0770162E00BB1102B2A
:1010E0006AD1DCF8081021F07001194341F00701C2
:1010F00057E000BF502B35D0602B5DD1D1F804E014
:10110000C968DCF82030DCF8202022F01002CCF88E
:101110002020DCF8182022F4704242EA013123F04A
:10112000A00242EA0E12CCF81810CCF82020DCF80D
:10113000081041F0670121F0100132E0D1E901E32C
:10114000C968DCF8082043EA0E0322F47F4243EA30
:1011500001211143CCF80810DCF8081041F480415B
:101160001FE000BFD1F804E0C968DCF82030DCF8EB
:10117000202022F00102CCF82020DCF8182022F0F8
:10118000F00242EA011123F00A0242EA0E02CCF810
:101190001810CCF82020DCF8081041F0570121F09D
:1011A0002001CCF808100022012180F83D10002118
:1011B00080F83C10104680BD0122F5E77047000022
:1011C00010B5016804460869800744BFC8685FEA33
:1011D000807039D40869400744BFC8685FEA40702E
:1011E0003ED40869000744BFC8685FEA007045D470
:1011F0000869C00644BFC8685FEAC0604AD408698D
:10120000C0071CBFC8685FEAC07051D108690006FA
:1012100044BFC8685FEA006052D40869400644BF12
:10122000C8685FEA406053D40869800646BFC86852
:101230005FEA806010BD6FF0200220460A61BDE8C1
:101240001040FFF7A3BD00BF6FF00200086101204E
:1012500020778869800743D02046FFF7AFFF45E03D
:101260006FF00400086102202077886910F4407F45
:1012700040D02046FFF7A2FF42E000BF6FF0080019
:10128000086104202077C86980073DD02046FFF719
:1012900095FF3FE06FF01000086108202077C869D3
:1012A00010F4407F3AD02046FFF788FF3CE000BFB3
:1012B0006FF001000861204600F0E4FB2168A5E71B
:1012C0006FF0800008612046FFF75EFD2168A4E70B
:1012D0006FF040000861204600F0D6FB2168A3E7CC
:1012E000204600F0F7F8204600F000FB21680020BF
:1012F00020776FE7204600F0EDF8204600F0F6FA80
:101300002168002020776CE7204600F0E3F82046B3
:1013100000F0ECFA21680020207769E7204600F011
:10132000D9F8204600F0E2FA21680020207766E72D
:101330002DE9F04190F83C30012B04BF0220BDE8BC
:10134000F0814FEAB202032A30D8DFE802F0033717
:10135000679700BF026842F60045146A136AC4F238
:10136000010523F0010313625368D2F818C0AA42A2
:101370008D68D1F800E024F0020444EA05040BD1A2
:10138000CD68D1E9056723F4407324F00C0425F0FF
:10139000040533432C433B432CF0730747EA0E0705
:1013A000536097614968516314628BE00121002208
:1013B00080F83C200846BDE8F08100BF026842F694
:1013C0000045146A136AC4F2010523F01003136286
:1013D0005368D2F818C0AA428D68D1F800E024F012
:1013E000200444EA05140FD1CD68D1E905876FF0D8
:1013F000400623F4406324F0C00406EA051543EADE
:1014000088032C4343EA87032CF4E64747EA0E2778
:101410005360976149689163146253E0026842F631
:101420000045146A136AC4F2010523F48073136241
:101430005368D2F81CC0AA428D68D1F800E024F4A9
:10144000007444EA05240FD1CD68D1E905872D0247
:1014500040F2FF4623F4405324F44064B54343EA8A
:1014600008132C4343EA07132CF0730747EA0E07CF
:101470005360D7614968D163146223E0026842F681
:101480000046D2F820C0136AC4F2010623F4805348
:1014900013625368D4690D68D1F808E0B24204D1F0
:1014A0004E6923F4804343EA861324F4E64646EA71
:1014B00005265360D6612CF40057496847EA0E337D
:1014C000116413620021002280F83C200846BDE828
:1014D000F081000070470000002804BF0120704721
:1014E00010B5044690F83D0028B9002084F83C006F
:1014F000204600F067F8022084F83D00206840F2A2
:10150000FF730268C4F2000342F6004C9842C4F232
:10151000010C15DCB0F1804F1AD040F20041C4F24A
:101520000001884214D0984218DCB0F1804F1DD0E1
:1015300040F20041C4F20001884217D01AE000BF17
:10154000604505D040F60001C4F200018842EAD1AE
:10155000A16822F070020A439842E6DD604505D09A
:1015600040F60001C4F20001884203D1216922F44F
:1015700040720A43A36922F08001D4F804E0E268D3
:10158000194360450160C262C0F828E002D1616978
:10159000CCF8301001214161002084F8461084F815
:1015A0003E1084F83F1084F8401084F8411084F80D
:1015B000421084F8431084F8441084F8451084F8ED
:1015C0003D1010BD81B0006840F20041C4F200013E
:1015D000884201D001B0704741F21C00C4F2020001
:1015E000016841F002010160006800F00200009013
:1015F000009801B0704700002DE9F04390F83C30AE
:10160000012B04BF0220BDE8F0834FEAB202032A97
:101610003CD8DFE802F003437FB900BF036842F61D
:1016200000461D6A1A6AC4F2010622F001021A621B
:101630001A465C6852F818CFB3428E68D1F800E0C1
:1016400025F0020545EA06050CD1CE68D1E90578FA
:1016500024F4407425F00C0526F004063C43354381
:1016600044EA08042CF0730747EA0E075C609F61A8
:101670004F6809695F631D629F6947F008079F61B2
:101680009F6927F004079F61AEE000BF012100229F
:1016900080F83C200846BDE8F08300BF036842F6AE
:1016A00000461D6A1A6AC4F2010622F010021A628C
:1016B0001A46D3F804C052F8184FB3428E68D1F8D6
:1016C00000E025F0200545EA06150FD1CE68D1E9E6
:1016D00005986FF0400707EA06162CF4406725F0DE
:1016E000C00547EA8907354347EA880C24F4E644F5
:1016F00044EA0E27C3F804C09F614F6809699F63DD
:101700001D629F6947F400679F619F6927F48067A6
:101710009F6168E0036842F600461D6A1A6AC4F2D7
:10172000010622F480721A621A46D3F804C052F8F5
:101730001CEFB3428E680C6825F4007545EA062557
:101740000FD1CE68D1E90598360240F2FF47BE437B
:101750002CF4405725F4406547EA0917354347EA1A
:10176000081C2EF073072743C3F804C0DF614F68DD
:101770000969DF631D62DF6947F00807DF61DF6920
:1017800027F00407DF612FE0036842F60047D3F833
:1017900020C01A6AC4F2010722F480521A621A4663
:1017A0005C6852F81C5FD1F800E08E68BB4204D13F
:1017B0004F6924F4804444EA87142CF4005747EA24
:1017C000063725F4E64646EA0E265C60DE614E6882
:1017D00009691E641F62DF6947F40067DF61DF6922
:1017E00027F48067DF610902136819431160002143
:1017F000002280F83C200846BDE8F083002804BFA2
:101800000120704710B5044690F83D0028B900202B
:1018100084F83C00204600F067F8022084F83D0080
:10182000206840F2FF730268C4F2000342F6004CE5
:101830009842C4F2010C15DCB0F1804F1AD040F28E
:101840000041C4F20001884214D0984218DCB0F183
:10185000804F1DD040F20041C4F20001884217D0F1
:101860001AE000BF604505D040F60001C4F2000157
:101870008842EAD1A16822F070020A439842E6DD6C
:10188000604505D040F60001C4F20001884203D152
:10189000216922F440720A43A36922F08001D4F83E
:1018A00004E0E268194360450160C262C0F828E0C4
:1018B00002D16169CCF8301001214161002084F827
:1018C000461084F83E1084F83F1084F8401084F8E5
:1018D000411084F8421084F8431084F8441084F8CE
:1018E000451084F83D1010BD70470000704700009F
:1018F00041B1082910D0042914BF00F1410200F1C0
:101900003F020BE090F83E20012A1CBF01207047E7
:10191000022280F83E2013E000F140021278012AF2
:101920001CBF012070470222082907D0042914BFD8
:1019300080F8412080F83F2002E000BF80F840207E
:10194000006801F01F010122036A8A4023EA0201B4
:101950000162036A42F64441C4F201011A43A1F153
:101960004403984202620FD040F2FF71C4F20001BA
:10197000884213DCB0F1804F1CD040F20041C4F229
:101980000001884216D01CE00A6842F400420A6056
:1019900040F2FF71C4F200018842EBDD42F60041E3
:1019A000C4F20101884205D040F60001C4F20001F2
:1019B000884206D1816801F00701062904BF002092
:1019C0007047016841F0010101600020704700008C
:1019D00080B5026801F01F0C012303FA0CFE136AA4
:1019E00042F6444C23EA0E03C4F2010C1362D2F80F
:1019F00020E0ACF144039A42C2F820E013D15CF835
:101A000024EC41F211131EEA030F0CD1D2F820E0AE
:101A100040F244431EEA030F05D1DCF8003023F402
:101A20000043CCF80030D2F820C041F211131CEA78
:101A3000030F06D1D2F820C040F244431CEA030F42
:101A400014D0082918D004290AD000294FF0010128
:101A500014BF80F8411080F83E10002080BD00BF08
:101A6000012180F83F10002080BD00BF136823F0E3
:101A7000010313600829E6D1012180F840100020FD
:101A800080BD00007047000070470000002804BFC0
:101A90000120704710B5044690F8410028B9002095
:101AA00084F84000204600F061F8242084F84100CA
:101AB0002068D4E90212C36823F40053C3600369A9
:101AC00023F440531A430261D4E904231143C2684A
:101AD000194341F20C639A431143C1604169A26901
:101AE00021F44071114343F60002C4F20102904216
:101AF000416103D0FEF730FF02E000BFFEF740FF78
:101B00006268192148439100B0FBF1F048F21F517F
:101B1000C5F2EB11A0FB01235A096FF0630302FB2E
:101B20000300322303EB0010A0FB0101F02303EAC2
:101B30005113206803EB0212C1F343111144816079
:101B4000016921F490410161416921F02A0141615B
:101B5000C16841F40051C16000202021606484F814
:101B6000411084F84210606310BD000070B586B06B
:101B700040F60004C4F20104006804F54051002658
:101B80008842049602D006B070BD00BF41F2180032
:101B9000C4F20200016802AD41F4804101600168B5
:101BA00001F4804101910199016841F00401016053
:101BB0000068294600F00400019001984FF400707D
:101BC000029002200390032005902046FEF714FCAB
:101BD0004FF48060CDE90206204629460496FEF7C0
:101BE0000BFC06B070BD0000FEE700002DE9F043DD
:101BF00085B04FF0000841F21800CDF81080C4F213
:101C00000200016840F6004441F0100101600168E3
:101C1000C4F2010401F01001009100990168A4F5DB
:101C2000806541F0200101600168012201F020017E
:101C30000091009901684FF0700941F004010160C2
:101C40000168012701F0040100910099016841F049
:101C5000080101600068702100F008000090009801
:101C60002846FEF7D9FC20464FF470410122FEF7CA
:101C7000D3FC20464FF410710022FEF7CDFC4FF448
:101C8000604001900020C1F2210001AECDE90207C1
:101C900004F580603146FEF7AFFB0620CDE9010870
:101CA000284631460397FEF7A7FB4FF00208284667
:101CB0003146CDE901970397CDF81080FEF79CFBE4
:101CC0004FF44060019012200290032004902046BF
:101CD0003146FEF791FB4FF24020CDE90107204647
:101CE0003146CDE90378FEF787FB28200321002247
:101CF000FEF716FD2820FEF703FD05B0BDE8F083D2
:101D000070B59CB040F60004C4F2010440F27000CB
:101D1000002104F51052C2F200004723FA26802564
:101D20001691CDE914111191CDE90F11CDE90D11E5
:101D3000CDE90B11CDE90911CDE90711CDE9051167
:101D4000CDE90311CDE90111C0E90023C0E9021674
:101D5000C0E904118561FFF77FF8002818BFFEF77E
:101D600085FA4FF48050139040F27000C2F20000E8
:101D700013A9FFF755F9002818BFFEF777FA40F2CC
:101D80007000C2F20000FFF739FD002818BFFEF70F
:101D90006DFA40F270000025C2F2000010A9CDE9F2
:101DA0001055FFF71BF8002818BFFEF75FFA6020F8
:101DB00009907D20CDE90A0540F27000C2F20000D2
:101DC00009A90022CDE90C55CDE90E55FFF714FC09
:101DD000002818BFFEF74AFA40F270054FF4005091
:101DE000C2F200050026069001A928460596CDE915
:101DF0000366CDE901660896FEF7CAFF002818BF02
:101E0000FEF734FA286840F20041C4F2000188422B
:101E1000CDE9196618961BD040F60001C4F2000106
:101E2000884225D042F60041C4F20101884238D1EF
:101E300041F21800C4F20200016841F0040101609F
:101E4000006800F00400179017984FF4807020E0AD
:101E500041F21800C4F20200016841F0040101607F
:101E6000006800F0040017901798802011E000BF70
:101E700041F21800C4F20200016804F5806441F0E8
:101E800008010160006800F00800179017984FF4EF
:101E9000C0701890022019901B9018A92046FEF7D8
:101EA000ABFA1CB070BD000070B590B040F60004F5
:101EB00040F2B800C4F201040021C2F2000063261F
:101EC000CDE90811CDE90611CDE90411A4F582325E
:101ED0004723C0E9021601618021C0E90023816126
:101EE000FFF7FAFA002818BFFEF7C0F940F2B80071
:101EF000C2F2000008A9FEF771FF002818BFFEF724
:101F0000B5F940F2B805C2F20005002601A928463D
:101F10000422CDE9016603960596FFF709FA002829
:101F200018BFFEF7A3F9286840F20041C4F200018F
:101F30008842CDE90D660C961CD040F60001C4F233
:101F40000001884226D042F60041C4F201018842D5
:101F500039D141F21800C4F20200016841F00401D5
:101F60000160006800F004000B900B984FF4807043
:101F700021E000BF41F21800C4F20200016841F004
:101F800004010160006800F004000B900B988020B1
:101F900011E000BF41F21800C4F20200016804F52C
:101FA000806441F008010160006800F008000B90B7
:101FB0000B984FF4C0700C9002200D900F900CA95C
:101FC0002046FEF719FA10B070BD0000B0B594B00D
:101FD00040F60004C4F2010440F200100021A4F510
:101FE0008032C2F20000472363250E91CDE90C1127
:101FF0000991CDE90711CDE90511CDE90311CDE92D
:102000000111C0E90023C0E9021501618161FEF7F9
:1020100023FF002818BFFEF729F94FF480500B90DA
:1020200040F20010C2F200000BA9FEF7F9FF0028F1
:1020300018BFFEF71BF940F20010C2F20000FFF7D4
:10204000DDFB002818BFFEF711F940F20010002553
:10205000C2F2000008A9CDE90855FEF7BFFE00282E
:1020600018BFFEF703F9602001900120CDE90205B9
:1020700040F20010C2F2000001A904220595FFF70A
:10208000BBFA002818BFFEF7F1F840F200156320F4
:10209000C2F20005029001A928460822FFF7ACFA17
:1020A000002818BFFEF7E2F8286840F20042C4F2A8
:1020B000000200219042CDE9111110911CD040F690
:1020C0000001C4F20001884226D042F60041C4F269
:1020D0000101884239D141F21800C4F202000168BE
:1020E00041F004010160006800F004000F900F98B7
:1020F0004FF4807021E000BF41F21800C4F20200EA
:10210000016841F004010160006800F004000F90D4
:102110000F98802011E000BF41F21800C4F20200C5
:10212000016804F5806441F008010160006800F076
:1021300008000F900F984FF4C0701090022011907B
:10214000139010A92046FEF757F914B0B0BD000057
:1021500080B540F2481043F60001C2F20000C4F21C
:10216000010100234FF00C0C4FF4E13280E80E0027
:10217000C0E90333C0E905C3C361FFF787FC00284A
:1021800008BF80BDBDE88040FEF770B8FEE70000E4
:10219000FEE700007047000070470000FEF748BAF5
:1021A0007047000040F20010C2F20000FFF708B8CC
:1021B000FEE7000092B0FEF749FA00240120CDE9C5
:1021C0000D44CDE90B4408900C904FF4E0104FF40F
:1021D00080310225119008A8CDE90914CDE90F51ED
:1021E000FEF7E2FB20B1EFF3108072B6FEE700BF0E
:1021F0000F20CDE903054FF4A060CDE9060403A844
:1022000002210594FEF7C8FA20B1EFF3108072B6F0
:10221000FEE700BF40F6000BC4F2010BFFF7E6FC3F
:10222000FFF76EFDFFF794FFFFF7D0FEFFF73CFED0
:1022300040F27000C2F20000FEF7BAFE40F2001851
:10224000C2F200084046FEF7B3FE40460421FFF705
:102250004FFB40460821FFF74BFB40F2B809C2F2A2
:10226000000948460421FFF743FBD8F800000A2183
:1022700081635A21C1634FF47A70FDF7FDFF584620
:10228000102100224FF0000AFEF7C6F9584620211F
:102290000022FEF7C1F9584640210022FEF7BCF9A2
:1022A0000BF5806528464FF480510022FEF7B4F903
:1022B00028464FF400510022FEF7AEF928464FF4AD
:1022C00080410022FEF7A8F928464FF40041002281
:1022D000FEF7A2F94FF4FA70FDF7CEFF28464FF44F
:1022E00080510122FEF798F96420FDF7C5FF58469A
:1022F00040210122FEF790F928464FF400510122B7
:10230000FEF78AF96420FDF7B7FF58462021012225
:10231000FEF782F928464FF480410122FEF77CF94E
:102320006420FDF7A9FF584610210122FEF774F939
:1023300028464FF400410122FEF76EF96420FDF7B4
:102340009BFF584610210022FEF766F958462021CF
:102350000022FEF761F9584640210022FEF75CF9A1
:1023600028464FF480510022FEF756F928464FF4D4
:1023700000510022FEF750F928464FF48041002218
:10238000FEF74AF928464FF4004100220295FEF775
:1023900043F96420FDF770FF584610210122FEF733
:1023A0003BF940F29017C2F2000725E00025012614
:1023B000029C402120460022FEF72EF920464FF4D1
:1023C00000713246FEF728F9584620210122FEF717
:1023D00023F9584640212A46FEF71EF96420FDF7EE
:1023E0004BFFD8F800001FFA8AF18163C163D9F866
:1023F00000000AF1050A81630A20FDF73DFF3878E5
:102400000128F9D158460221FEF700F90546584641
:102410000421FEF7FBF8012D064608BF002EC5D0AB
:10242000711EB5FA85F0B1FA81F1CDF804A0CA4663
:10243000C1464009002D4FEA511808BF012E01D0B6
:10244000D8B932E0029C4021204601224FF0010819
:10245000FEF7E2F820464FF400710022FEF7DCF8A8
:102460005846202100225C46FEF7D6F85846402107
:102470000122FEF7D1F80120B8B1B6B9029C402183
:1024800020460122FEF7C8F820464FF400710122D1
:10249000FEF7C2F85846202100225C46FEF7BCF841
:1024A000584640210022FEF7B7F8681EB0FA80F0C7
:1024B000400900EA0800C846D146DDF804A001281A
:1024C0008CD10125002673E7000000000000000009
:1024D00001020304060708090000000001020304CA
:1024E000010202030405060708090A0B0C0D0E0F72
:1024F0001010000018250008000000201000000047
:102500002801000828250008100000208807000086
:10251000440100080000000001000000100000005D
:082520000024F400000000009B
:04000005080000ED02
:00000001FF
