:020000040800F2
:100000005007002089010008C91C0008B518000825
:10001000C51C000845020008E91C0008000000009B
:10002000000000000000000000000000D11C0008DB
:100030004902000800000000CD1C0008D51C000883
:10004000A3010008A3010008A3010008A301000800
:10005000A3010008A3010008A3010008A3010008F0
:10006000A3010008A3010008A3010008A3010008E0
:10007000A3010008A3010008A3010008A3010008D0
:10008000A3010008A3010008A3010008A3010008C0
:10009000A3010008A3010008A3010008A3010008B0
:1000A000A3010008A3010008A3010008A3010008A0
:1000B000A3010008A3010008DD1C0008A30100083B
:1000C000A3010008A3010008A3010008A301000880
:1000D000A3010008A3010008A3010008A301000870
:1000E0004D020008A3010008A301000800F002F877
:1000F00000F03AF80AA090E8000C82448344AAF188
:100100000107DA4501D100F02FF8AFF2090EBAE885
:100110000F0013F0010F18BFFB1A43F0010318473B
:10012000401D0000601D0000103A24BF78C878C14F
:10013000FAD8520724BF30C830C144BF04680C60ED
:10014000704700000023002400250026103A28BF35
:1001500078C1FBD8520728BF30C148BF0B60704739
:100160001FB51FBD10B510BD00F031F81146FFF7E7
:10017000F7FF01F0BBFD00F04FF803B4FFF7F2FF0B
:1001800003BC00F057F800000948804709480047C1
:10019000FEE7FEE7FEE7FEE7FEE7FEE7FEE7FEE737
:1001A000FEE7FEE704480549054A064B7047000094
:1001B000D91C0008ED000008500100205007002065
:1001C0005003002050030020704770477047754669
:1001D00000F02CF8AE4605006946534620F00700B3
:1001E000854618B020B5FFF7DDFFBDE820404FF091
:1001F00000064FF000074FF000084FF0000BAC4630
:10020000ACE8C009ACE8C009ACE8C009ACE8C0097A
:1002100021F007018D46704710B50446AFF300800A
:100220002046BDE81040FFF7A8BF00000048704717
:100230001000002001491820ABBEFEE72600020096
:1002400070470000FEE700007047000080B54FF4E3
:10025000005000F0C5F84FF4804000F0C1F84FF4B2
:100260000040BDE8804000F0BBB80000EFF3108014
:1002700072B600BFFEE70000B0B5044600F0D2F948
:10028000054640F20000C2F200000078611C18BF71
:10029000044400BF00F0C6F9401BA042FAD3B0BD31
:1002A00070B540F600450A20C4F20105FFF7E4FFEF
:1002B00005F5806420464FF4005100F0A7F90028AE
:1002C00073D128464FF48051012200F0A5F9C820CF
:1002D000FFF7D2FFA5F5806630464021012200F0ED
:1002E0009BF928464FF40051012200F095F9C820EF
:1002F000FFF7C2FF30462021012200F08DF9284689
:100300004FF48041012200F087F9C820FFF7B4FFC5
:1003100030461021012200F07FF928464FF40041B9
:10032000012200F079F9C820FFF7A6FF304610211E
:10033000002200F071F930462021002200F06CF913
:1003400030464021002200F067F928464FF48051E2
:10035000002200F061F928464FF40051002200F01D
:100360005BF928464FF48041002200F055F92846F9
:100370004FF40041002200F04FF9C820FFF77CFF46
:1003800030461021012200F047F940F27005C2F218
:1003900000052846002101F011F94FF4FA70FFF72B
:1003A0006BFF2846002101F079F920464FF4804187
:1003B00000F02CF928B940F24810C2F200000121E7
:1003C000017020464FF4004100F020F9002818BFCA
:1003D00070BD40F24810C2F200000021017070BDF3
:1003E00040F21441C4F201010A68024214BF0860DD
:1003F0007047FFF755BF00002DE9F04F82B041F282
:100400000042C4F201020E680423904208BF032395
:10041000002E009300F0F68040F2004C4FF6FF7E75
:100420000022C4F2010C0124C1F2100E4FF0000AA8
:100430004FF0000947E000BF012502F00C040F2730
:10044000A7402BEA070705FA04F43C4343F826408B
:10045000D1F804B040F20C455FEACB23DCF8083059
:1004600054BF23EA080343EA0803C4F20105CCF8A9
:1004700008302B685FEA8B2454BF23EA080343EA61
:1004800008032B605FEA8B34DCF8043054BF23EAA6
:10049000080343EA08035FEACB34CCF80430DCF805
:1004A00000304FF0010454BF23EA080343EA080375
:1004B000CCF800300E680AF1010A36FA0AF302F1AC
:1004C000040200F09F8004FA0AF816EA080FF1D03F
:1004D0004B68734512DC122B56D8DFE803F0350B5E
:1004E0004549555555555555555555555555554DE0
:1004F000510000BFD1F80C9046E000BF4FF6FF75E9
:10050000C1F22105AB420FDC0025C1F21105AB425F
:100510001AD00025C1F21205AB4215D00025C1F258
:100520002105AB4210D02FE00025C1F22205AB42DD
:100530000AD00025C1F23105AB4205D00025C1F239
:100540003205AB4220D100BF8B684BB1012B14BFE9
:10055000C0F81480C0F810804FF0080914E000BF04
:100560004FF0040910E000BFCB6803F108090BE06D
:100570004FF0000908E000BFCB6803F1040903E075
:10058000CB6803F10C0900BF13460546BAF1080F0A
:1005900024BF203B04352E680F279F40BE4309FA35
:1005A00003F333432B60CB79DB067FF583AF41F256
:1005B0001804C4F2020423684FEA9A0643F00103C8
:1005C0002360236840F6000403F001030193019BBC
:1005D000ACF57E7353F826B0C4F20104A0420FD0EC
:1005E00040F60044C4F20104A0423FF425AF41F2BA
:1005F0000004C4F20104009DA04208BF02251CE7CC
:1006000000251AE702B0BDE8F08F000080680840BE
:1006100018BF012070470000002A08BF09040161CB
:100620007047000040F24C10C2F2000000687047B2
:1006300040F2000040F24C11C2F20000C2F2000190
:1006400000780A68104408607047000080B542F2E4
:100650000000C4F20200016841F0100101600320B3
:1006600000F08AF8002000F005F800F027F80020DC
:1006700080BD000070B540F20006C2F2000640F2F4
:1006800008013278C2F200014FF47A730968B3FBB3
:10069000F2F20446B1FBF2F1084600F05FFB0F2CCA
:1006A0004FF0010508D838B94FF0FF30214600223D
:1006B000002500F035F87460284670BD82B041F224
:1006C0001800C4F202000168022241F00101016039
:1006D000016801F0010101910199416841F08051E7
:1006E0004160406800F08050009000980420C4F2FF
:1006F0000100016862F31A61016002B070470000F6
:10070000002848BF704700F01F01012202FA01F1E2
:100710004EF200124009CEF2000242F8201070475B
:1007200010B54EF60C5CCEF2000CDCF80030C3F3D2
:10073000022E8EF00704042C28BF0424BEF103030C
:100740004FF0FF3E0EFA04F438BF0023A143994056
:100750000EFA03F39A43114300F00F02043A624485
:1007600009010C3200F16043B0F1FF3FC8BF03F54F
:100770006442117010BD00004EF60C51CEF2000123
:100780000A684FF6FF031A4060F30A2242F08060C5
:1007900040F0FD70086070472DE9F04381B00028FB
:1007A00000F0858042F20008C4F202080446D8F83E
:1007B00000000D4600F0070088420CD2D8F8000077
:1007C00020F007002843C8F80000D8F8000000F027
:1007D0000700A8426BD1206841F204098107C4F2E6
:1007E000020917D5410705D5D9F8001041F4E06199
:1007F000C9F80010010705D5D9F8001041F460517F
:10080000C9F80010D9F80010A26821F0F0011143D6
:10081000C9F80010C00741D1D8F8000000F0070067
:10082000A8420CD9D8F8000020F007002843C8F8E7
:100830000000D8F8000000F00700A84237D1206877
:10084000410707D5D9F80010E26821F4E0611143AF
:10085000C9F80010000708D5D9F80000216920F474
:10086000605040EAC100C9F80000D9F8002002F049
:100870000C00082841F20020C0F27A0050D141F665
:100880005063C2F38341C0F60003595CD2033BD4EA
:1008900040F60010C0F23D00484341E06068022885
:1008A0000AD001282AD159F8041C890308D4012050
:1008B00001B0BDE8F08300BF59F8041C8901F6D5EA
:1008C000D9F8001021F003010843C9F80000FFF730
:1008D000A9FE064641F28837D9F80000616800F0A9
:1008E0000C00B0EB810F97D0FFF79CFE801BB84245
:1008F000F2D9032001B0BDE8F08300BF59F8041C11
:100900008907D4D5DCE700BFD9F8002041F64E6353
:10091000C2F34042C0F600039A5C4843B0FBF2F0D9
:10092000D9F8001041F63662C1F30311C0F6000297
:10093000515C40F2080220FA01F140F20400C2F2D8
:1009400000000068C2F200021160FFF793FE002071
:1009500001B0BDE8F083000040F2080041F204015C
:10096000C2F20000C4F202010068096841F6466262
:10097000C1F30221C0F60002515CC840704700007C
:1009800040F2080041F20401C2F20000C4F2020188
:100990000068096841F64662C1F3C221C0F6000250
:1009A000515CC840704700002DE9F04182B000283A
:1009B00068D00446007841F20006C007C4F202067F
:1009C00025D0706800F00C0004281BD0706800F07F
:1009D0000C00082802D17068C00313D46068002896
:1009E00000F06881B0F5A02F00F07C81B0F5803F69
:1009F00000F07C81306820F480303060306820F472
:100A0000802076E13068800301D56068D0B320781B
:100A1000800718D5706810F00C0F07D0706800F0D0
:100A20000C0008286ED17068C0036BD43068800752
:100A300002D52069012825D13068616920F0F800CD
:100A400040EAC1003060207800071FD420784007BA
:100A500032D4E56995B1706800F00C00082840F0C8
:100A60008F80012D0ED07068216A00F480328A4296
:100A700008D1616A00F47010884203D1002002B0EE
:100A8000BDE8F081012002B0BDE8F081A069002836
:100A900062D00020C4F242200121C0F88014FFF788
:100AA000C1FD0546706A800700F18C80FFF7BAFD32
:100AB000401B0228F6D92AE1F06910F0805808D1CD
:100AC000F06940F08050F061F06900F080500090D3
:100AD000009847F20007C4F200073868C00529D41F
:100AE000386840F480703860FFF79CFD054600BF11
:100AF0003868C0051ED4FFF795FD401B6428F7D960
:100B000005E100BF2069002840F20000C4F2422045
:100B100000F0828001210160FFF784FD054600BFDF
:100B2000306880073FF588AFFFF77CFD401B022847
:100B3000F6D9ECE0E068002800F08080052800F09D
:100B40009780012800F09880306A20F00100306220
:100B5000306A20F0040092E00020C4F2422000211C
:100B6000C0F88014FFF75EFD054600BF706A80077D
:100B70007FF56CAFFFF756FD401B0228F6D9C6E0A3
:100B80000027C4F2422700203866FFF74BFD022DF4
:100B900005460BD13068800140F1BE80FFF742FD71
:100BA000401B02284FF00300F4D968E73068800149
:100BB0007FF564AFFFF736FD401B02284FF00300BE
:100BC000F4D95CE740F20800C2F20000006844F685
:100BD000D351C1F26201A0FB0101480A019000BF9C
:100BE00000BF0198411E002801913FF42FAF00BFC4
:100BF0000198411E002801913FF428AF00BF0198E1
:100C0000411E002801913FF421AF00BF0198411E11
:100C100000280191E4D119E700210160FFF702FDEE
:100C2000054600BF306880077FF50DAFFFF7FAFC7F
:100C3000401B02284FF00300F4D920E7306A20F06F
:100C400001003062306A20F004003062FFF7EAFCF5
:100C5000054641F2883700BF306A800720D5FFF78C
:100C6000E1FC401BB8424FF00300F5D907E700BF95
:100C7000306A40F004003062306A40F001003062B7
:100C8000FFF7D0FC054641F2883700BF306A800785
:100C900006D4FFF7C7FC401BB842F7D937E000BFC6
:100CA000B8F1000F7FF4D5AEF06920F08050F0610C
:100CB000CFE600BF306820F480303060306820F428
:100CC00080203060FFF7AEFC054600BF306880032F
:100CD0007FF59DAEFFF7A6FC401B64284FF0030094
:100CE000F4D9CCE6306840F480203060306840F4BD
:100CF00080303060FFF796FC054600BF3068800307
:100D00003FF585AEFFF78EFC401B6428F6D9032023
:100D100002B0BDE8F08100BF206AB0F5803F05D188
:100D20007168A26821F40031114371607168626AD0
:100D300021F4741110430843706001203866FFF7F6
:100D400071FC0446306880013FF598AEFFF76AFCFD
:100D5000001B02284FF00300F4D990E6411E00204A
:100D6000B0EB116F1CBF012070474EF21002CEF2A3
:100D7000000251604EF62351CEF20001F0230B70B9
:100D800007219060116070477047000070470000B5
:100D9000B0B590F83C20012A04BF0220B0BD01F19B
:100DA00008053CCDD1E900CE23F47C5322F47052E7
:100DB0001A432EF4F0431A432CF4E0431A4324F46C
:100DC000C0431A432A43C96922F48042036811438D
:100DD0005964002180F83C100846B0BD10B590F869
:100DE0003C20012A4FF0020233D080F83D200268F7
:100DF000D2F804E0D2F808C00C682EF07003234348
:100E000040F2FF74C4F20004A24253600ADCB2F163
:100E1000804F13D040F20043C4F200039A420DD039
:100E200011E000BF42F60043C4F201039A4205D02C
:100E300040F60003C4F200039A4204D149682CF042
:100E40008003194391600121002280F83D1080F851
:100E50003C20104610BD0000002804BF0120704750
:100E600010B5044690F83D0028B9002084F83C00F5
:100E7000204600F067F8022084F83D00206840F228
:100E8000FF730268C4F2000342F6004C9842C4F2B9
:100E9000010C15DCB0F1804F1AD040F20041C4F2D1
:100EA0000001884214D0984218DCB0F1804F1DD068
:100EB00040F20041C4F20001884217D01AE000BF9E
:100EC000604505D040F60001C4F200018842EAD135
:100ED000A16822F070020A439842E6DD604505D021
:100EE00040F60001C4F20001884203D1216922F4D6
:100EF00040720A43A36922F08001D4F804E0E2685A
:100F0000194360450160C262C0F828E002D16169FE
:100F1000CCF8301001214161002084F8461084F89B
:100F20003E1084F83F1084F8401084F8411084F893
:100F3000421084F8431084F8441084F8451084F873
:100F40003D1010BD80B582B0006840F60001C4F2CB
:100F50000001884214D042F60041C4F201018842E7
:100F60000CD141F21800C4F20200016841F40061A2
:100F70000160006800F400600190019802B080BD3B
:100F800041F21800C4F202004168002241F004015D
:100F900041604068002100F00400009000981E208D
:100FA000FFF7BEFB1E2002B0BDE88040FFF7A8BBE4
:100FB00080B590F83C20012A4FF0020200F0C28078
:100FC00080F83D20D0F800C04FF67772DCF808308A
:100FD00023EA0202CCF808200B684F2B28DC1F2BD9
:100FE00044DD202B45D0302B43D0402B40F0AC804B
:100FF000D1F804E0C968DCF82030DCF8202022F0C9
:101000000102CCF82020DCF8182022F0F00242EA9D
:10101000011123F00A0242EA0E02CCF81810CCF8B3
:101020002020DCF8081041F0470121F0300180E079
:101030006F2B27DDB3F5005F48D0B3F5805F7AD022
:10104000702B40F08180D1E901E3C968DCF8082009
:1010500043EA0E0322F47F4243EA01211143CCF814
:101060000810DCF8081041F0770162E00BB1102B9A
:101070006AD1DCF8081021F07001194341F0070132
:1010800057E000BF502B35D0602B5DD1D1F804E084
:10109000C968DCF82030DCF8202022F01002CCF8FF
:1010A0002020DCF8182022F4704242EA013123F0BB
:1010B000A00242EA0E12CCF81810CCF82020DCF87E
:1010C000081041F0670121F0100132E0D1E901E39D
:1010D000C968DCF8082043EA0E0322F47F4243EAA1
:1010E00001211143CCF80810DCF8081041F48041CC
:1010F0001FE000BFD1F804E0C968DCF82030DCF85C
:10110000202022F00102CCF82020DCF8182022F068
:10111000F00242EA011123F00A0242EA0E02CCF880
:101120001810CCF82020DCF8081041F0570121F00D
:101130002001CCF808100022012180F83D10002188
:1011400080F83C10104680BD0122F5E77047000092
:1011500010B5016804460869800744BFC8685FEAA3
:10116000807039D40869400744BFC8685FEA40709E
:101170003ED40869000744BFC8685FEA007045D4E0
:101180000869C00644BFC8685FEAC0604AD40869FD
:10119000C0071CBFC8685FEAC07051D1086900066B
:1011A00044BFC8685FEA006052D40869400644BF83
:1011B000C8685FEA406053D40869800646BFC868C3
:1011C0005FEA806010BD6FF0200220460A61BDE832
:1011D0001040FFF7DBBD00BF6FF002000861012087
:1011E00020778869800743D02046FFF7AFFF45E0AE
:1011F0006FF00400086102202077886910F4407FB6
:1012000040D02046FFF7A2FF42E000BF6FF0080089
:10121000086104202077C86980073DD02046FFF789
:1012200095FF3FE06FF01000086108202077C86943
:1012300010F4407F3AD02046FFF788FF3CE000BF23
:101240006FF001000861204600F082FA2168A5E7EE
:101250006FF0800008612046FFF796FD2168A4E743
:101260006FF040000861204600F074FA2168A3E79F
:10127000204600F025F8204600F09EF92168002065
:1012800020776FE7204600F01BF8204600F094F925
:101290002168002020776CE7204600F011F82046F6
:1012A00000F08AF921680020207769E7204600F0E5
:1012B00007F8204600F080F921680020207766E7D3
:1012C000704700002DE9F04390F83C30012B04BF3B
:1012D0000220BDE8F0834FEAB202032A3CD8DFE8DF
:1012E00002F003437FB900BF036842F600461D6A5F
:1012F0001A6AC4F2010622F001021A621A465C68F8
:1013000052F818CFB3428E68D1F800E025F00205FC
:1013100045EA06050CD1CE68D1E9057824F440747D
:1013200025F00C0526F004063C43354344EA080446
:101330002CF0730747EA0E075C609F614F680969EC
:101340005F631D629F6947F008079F619F6927F0EF
:1013500004079F61AEE000BF0121002280F83C201D
:101360000846BDE8F08300BF036842F600461D6AE8
:101370001A6AC4F2010622F010021A621A46D3F861
:1013800004C052F8184FB3428E68D1F800E025F03F
:10139000200545EA06150FD1CE68D1E905986FF012
:1013A000400707EA06162CF4406725F0C00547EA17
:1013B0008907354347EA880C24F4E64444EA0E27BB
:1013C000C3F804C09F614F6809699F631D629F69EC
:1013D00047F400679F619F6927F480679F6168E019
:1013E000036842F600461D6A1A6AC4F2010622F436
:1013F00080721A621A46D3F804C052F81CEFB34246
:101400008E680C6825F4007545EA06250FD1CE6874
:10141000D1E90598360240F2FF47BE432CF440570D
:1014200025F4406547EA0917354347EA081C2EF0C2
:1014300073072743C3F804C0DF614F680969DF639E
:101440001D62DF6947F00807DF61DF6927F00407E5
:10145000DF612FE0036842F60047D3F820C01A6A24
:10146000C4F2010722F480521A621A465C6852F8EC
:101470001C5FD1F800E08E68BB4204D14F6924F4B0
:10148000804444EA87142CF4005747EA063725F4D1
:10149000E64646EA0E265C60DE614E6809691E6417
:1014A0001F62DF6947F40067DF61DF6927F4806747
:1014B000DF6109021368194311600021002280F8DE
:1014C0003C200846BDE8F083002804BF0120704797
:1014D00010B5044690F83D0028B9002084F83C007F
:1014E000204600F067F8022084F83D00206840F2B2
:1014F000FF730268C4F2000342F6004C9842C4F243
:10150000010C15DCB0F1804F1AD040F20041C4F25A
:101510000001884214D0984218DCB0F1804F1DD0F1
:1015200040F20041C4F20001884217D01AE000BF27
:10153000604505D040F60001C4F200018842EAD1BE
:10154000A16822F070020A439842E6DD604505D0AA
:1015500040F60001C4F20001884203D1216922F45F
:1015600040720A43A36922F08001D4F804E0E268E3
:10157000194360450160C262C0F828E002D1616988
:10158000CCF8301001214161002084F8461084F825
:101590003E1084F83F1084F8401084F8411084F81D
:1015A000421084F8431084F8441084F8451084F8FD
:1015B0003D1010BD704700007047000041B1082980
:1015C00010D0042914BF00F1410200F13F020BE0EA
:1015D00090F83E20012A1CBF01207047022280F8AB
:1015E0003E2013E000F140021278012A1CBF0120C6
:1015F00070470222082907D0042914BF80F841202F
:1016000080F83F2002E000BF80F84020006801F031
:101610001F010122036A8A4023EA02010162036A70
:1016200042F64441C4F201011A43A1F14403984235
:1016300002620FD040F2FF71C4F20001884213DC55
:10164000B0F1804F1CD040F20041C4F2000188424A
:1016500016D01CE00A6842F400420A6040F2FF71B2
:10166000C4F200018842EBDD42F60041C4F2010100
:10167000884205D040F60001C4F20001884206D13C
:10168000816801F00701062904BF00207047016846
:1016900041F00101016000207047000080B5026840
:1016A00001F01F0C012303FA0CFE136A42F6444CAE
:1016B00023EA0E03C4F2010C1362D2F820E0ACF16D
:1016C00044039A42C2F820E013D15CF824EC41F2C2
:1016D00011131EEA030F0CD1D2F820E040F244436C
:1016E0001EEA030F05D1DCF8003023F40043CCF8E8
:1016F0000030D2F820C041F211131CEA030F06D1CA
:10170000D2F820C040F244431CEA030F14D0082949
:1017100018D004290AD000294FF0010114BF80F825
:10172000411080F83E10002080BD00BF012180F8EC
:101730003F10002080BD00BF136823F00103136039
:101740000829E6D1012180F84010002080BD00006A
:101750007047000070470000002804BF0120704758
:1017600010B5044690F8410028B9002084F84000E4
:10177000204600F061F8242084F841002068D4E974
:101780000212C36823F40053C360036923F4405377
:101790001A430261D4E904231143C268194341F298
:1017A0000C639A431143C1604169A26921F44071FD
:1017B000114343F60002C4F201029042416103D09A
:1017C000FFF7CAF802E000BFFFF7DAF862681921F4
:1017D00048439100B0FBF1F048F21F51C5F2EB1104
:1017E000A0FB01235A096FF0630302FB03003223BD
:1017F00003EB0010A0FB0101F02303EA5113206862
:1018000003EB0212C1F3431111448160016921F419
:1018100090410161416921F02A014161C16841F4AF
:101820000051C16000202021606484F8411084F8D8
:101830004210606310BD000070B586B040F6000431
:10184000C4F20104006804F5405100268842049661
:1018500002D006B070BD00BF41F21800C4F2020011
:10186000016802AD41F480410160016801F48041EA
:1018700001910199016841F0040101600068294665
:1018800000F00400019001984FF4007002900220D3
:101890000390032005902046FEF7AEFD4FF48060D4
:1018A000CDE90206204629460496FEF7A5FD06B0BE
:1018B00070BD0000FEE700002DE9F04786B04FF054
:1018C000000941F21800CDF81490C4F2020001683A
:1018D00040F6000541F0100101600168C4F2010505
:1018E00001F01001019101990168002241F02001ED
:1018F000016001684FF0F00A01F0200101910199A7
:10190000016841F004010160016801F004010191E6
:101910000199016841F0080101600068F02100F0C0
:101920000800019001982846FEF776FE05F58064D0
:1019300020464FF2402100224FF24028FEF76CFE75
:101940004FF4604002900020C1F2210002AE0390EB
:10195000012705F5006031460497FEF74DFD06208E
:10196000CDE90209284631460497FEF745FD4FF0C0
:10197000020928463146CDE902A70497CDF8149014
:10198000FEF73AFD4FF440600290122003900320CE
:10199000059020463146FEF72FFD20463146CDE921
:1019A0000287CDE90479FEF727FD282003210022D4
:1019B000FEF7B6FE2820FEF7A3FE06B0BDE8F087CE
:1019C00070B59CB040F60004C4F2010440F270000F
:1019D000002104F51052C2F200004723FA268025A8
:1019E0001691CDE914111191CDE90F11CDE90D1129
:1019F000CDE90B11CDE90911CDE90711CDE90511AB
:101A0000CDE90311CDE90111C0E90023C0E90216B7
:101A1000C0E904118561FFF71FFA002818BFFEF71F
:101A200025FC4FF48050139040F27000C2F2000089
:101A300013A9FFF7BDFA002818BFFEF717FC40F204
:101A40007000C2F20000FFF73FFD002818BFFEF74C
:101A50000DFC40F270000025C2F2000010A9CDE993
:101A60001055FFF7BBF9002818BFFEF7FFFB6020F9
:101A700009907D20CDE90A0540F27000C2F2000015
:101A800009A90022CDE90C55CDE90E55FFF71AFC46
:101A9000002818BFFEF7EAFB40F270054FF4005033
:101AA000C2F200050026069001A928460596CDE958
:101AB0000366CDE901660896FFF76AF9002818BFAA
:101AC000FEF7D4FB286840F60001C4F2000188420A
:101AD000CDE91966189615D042F60041C4F201010D
:101AE000884228D141F21800C4F20200016841F096
:101AF00004010160006800F00400179017984FF48B
:101B0000807010E041F21800C4F20200016804F590
:101B1000806441F008010160006800F0080017903F
:101B200017984FF4C0701890022019901B9018A9B4
:101B30002046FEF761FC1CB070BD0000B0B594B04B
:101B400040F6000540F2B800C4F200050021C2F2E0
:101B50000000472231230E91CDE90C110991CDE906
:101B60000711CDE90511CDE90311CDE90111C0E956
:101B70000052C0E9021301618161FFF76DF900288D
:101B800018BFFEF773FB4FF480500B9040F2B80083
:101B9000C2F200000BA9FFF70BFA002818BFFEF7EE
:101BA00065FB40F2B800C2F20000FFF78DFC002890
:101BB00018BFFEF75BFB40F2B8000024C2F2000041
:101BC00008A9CDE90844FFF709F9002818BFFEF776
:101BD0004DFB602001900A20CDE9020440F2B800DC
:101BE000C2F2000001A904220594FFF76BFB002854
:101BF00018BFFEF73BFB40F2B8041E20C2F20004FF
:101C0000029001A920460822FFF75CFB002818BFBC
:101C1000FEF72CFB20680021A8421291119110912F
:101C200018D042F60041C4F2010188422AD141F2A3
:101C30001800C4F20200016841F00401016000686C
:101C400000F004000F900F984FF48070109005F58D
:101C5000803011E041F21800C4F20200016841F046
:101C600008010160006800F008000F900F984FF421
:101C7000C070109005F5823002211191139110A9C6
:101C8000FEF7BAFB14B0B0BD80B540F2001043F6C9
:101C90000001C2F20000C4F2010100234FF00C0C5D
:101CA0004FF4E13280E80E00C0E90333C0E905C318
:101CB000C361FFF751FD002808BF80BDBDE880402B
:101CC000FEF7D4BAFEE70000FEE700007047000010
:101CD00070470000FEF7ACBC7047000040F2B8004F
:101CE000C2F20000FFF734BAFEE7000090B0FEF742
:101CF000ADFC00240120CDE90B44CDE90944069058
:101D00000A904FF4E0104FF4803102250F9006A89E
:101D1000CDE90714CDE90D51FEF746FE20B1EFF3F2
:101D2000108072B6FEE700BF0F20CDE901054FF429
:101D3000A060CDE9040401A802210394FEF72CFD64
:101D400020B1EFF3108072B6FEE700BF40F600044A
:101D5000C4F20104FFF7B0FDFFF732FEFFF794FF76
:101D6000FFF7ECFE40F2B805C2F200052846042158
:101D7000FFF724FC28460821FFF720FC28684FF0D5
:101D8000320804F58066C0F83880C0F83C803046E0
:101D900040210122FEF740FC30464FF40071012241
:101DA000FEF73AFC204610210122FEF735FC40F2F6
:101DB0004817C2F200074FF0280907E028202968D9
:101DC000C1F83880C8630A20FEF756FA387801282F
:101DD000F9D120460221FEF719FC064620460421CF
:101DE000FEF714FC012E08BF0028E7D0B6FA86F1F2
:101DF0004A09411EB1FA81F1002E4FEA511108BF84
:101E0000012801D042B90DE029680122C1F83890BB
:101E1000C1F83C8001212AB120B92868C0F8389067
:101E2000C0F83C90701EB0FA80F0400908400128CC
:101E3000C9D13220C3E70000000000000000010209
:101E40000304060708090000000001020304010260
:101E500002030405060708090A0B0C0D0E0F1010EB
:101E6000801E00080000002010000000280100086B
:101E7000901E0008100000204007000044010008E8
:101E800001000000100000000024F4000000000029
:04000005080000ED02
:00000001FF
