:020000040800F2
:10000000E8080020A1010008852C0008A5270008A9
:10001000812C0008B10C0008A52C0008000000008D
:100020000000000000000000000000008D2C00080F
:10003000B50C000800000000892C0008912C000875
:10004000BB010008BB010008BB010008BB010008A0
:10005000BB010008BB010008BB010008BB01000890
:10006000BB010008BB010008BB010008BB01000880
:10007000BB010008BB010008BB010008BB01000870
:10008000BB010008BB010008BB010008BB01000860
:10009000BB010008BB010008BB010008BB01000850
:1000A000BB010008BB010008BB010008BB01000840
:1000B000BB010008BB010008992C0008BB01000827
:1000C000BB010008BB010008BB010008BB01000820
:1000D000BB010008BB010008BB010008BB01000810
:1000E000B90C0008BB010008BB01000800F002F8D1
:1000F00000F047F80AA090E8000C82448344AAF17B
:100100000107DA4501D100F03CF8AFF2090EBAE878
:100110000F0013F0010F18BFFB1A43F0010318473B
:10012000742D0000942D0000103A24BF78C878C1C7
:10013000FAD8520724BF30C830C144BF04680C60ED
:10014000704700000023002400250026103A28BF35
:1001500078C1FBD8520728BF30C148BF0B60704739
:10016000642900F07D80002070471FB59DE80300E2
:1001700000F070FB00F03AF91FBD10B500F09FF9D8
:1001800010BD00F0CFF91146FFF7EFFF02F09CFD24
:1001900000F0D6FA03B4FFF7F0FF03BC00F0CCFC8C
:1001A0000948804709480047FEE7FEE7FEE7FEE70B
:1001B000FEE7FEE7FEE7FEE7FEE7FEE70448054947
:1001C000054A064B70470000952C0008ED0000081A
:1001D000E8020020E8080020E8040020E8040020ED
:1001E0000FB4044910B503AA029800F0D1F810BC6E
:1001F0005DF814FB6C0000202DE9F0410E4604462A
:10020000002020622046E168884730B3252805D0C9
:10021000D4E901219047206A401CF2E7E1682046BA
:1002200000278847050018D0A5F14100192802D8F9
:1002300020354FF400673246294620462760FFF7F5
:100240008FFF40B1012804D0F61D26F007060836BE
:10025000D8E7361DD6E72846DAE7206ABDE8F08100
:100260002DE9F0410646002410687529314616A58F
:1002700010D0AFF30080002802DA404213A507E057
:1002800031688A0701D512A502E0490704D511A5F6
:10029000012401E0AFF3008000210A2206F12407C7
:1002A00009E0B0FBF2FCB0FBF2F302FB1C003030C3
:1002B00078541846491C0028F3D123462A46304674
:1002C000BDE8F04100F00BB8000000002D00000078
:1002D0002B000000200000007047704770472DE998
:1002E000F0470D4699469246044600F124080168FD
:1002F000880604D5E06921F01001216000E00120AA
:10030000A84201DD471B00E00027A1697A1902EB32
:100310000900081AA0612078C00602D42046AFF375
:100320000080002608E0D4E901211AF80600904771
:10033000206A401C761C20624E45F4DB2078C00603
:100340000AD52046AFF3008006E0D4E90121302031
:100350009047206A401C2062381EA7F10107F4DC98
:1003600007E0D4E9012118F805009047206A401CF5
:100370002062281EA5F10105F3DC2046AFF30080C2
:100380002078000602D50220BDE8F0870120FBE7B7
:10039000074B70B50D467B4400F011F80446284623
:1003A00000F020F810B14FF0FF3070BD204670BD56
:1003B0000F29000001694A1C02610878704700B5E6
:1003C0008FB0CDE901310021059105497944CDE98E
:1003D000031011466846FFF70FFF0FB000BD000085
:1003E000E5FFFFFF007B00F08000704710B542483A
:1003F000542100F0B5F94148542100F0B1F94048CA
:10040000542100F0ADF93F493B483C4A3F4B08605E
:100410003D490A603A491960531C0365481C106540
:10042000012008653B48344A39A1784400F0EAF8D5
:1004300020B9384878440A3800F08BF937482F4AF9
:1004400035A1784400F0DEF820B9344878440A3801
:1004500000F07FF932482A4A2FA1784400F0D2F800
:1004600020B92F4878440A3800F073F94023224815
:10047000DC000021224600F0A1F820B12548784494
:10048000543800F066F91D4822464023002100F050
:1004900095F820B121487844543800F05AF91848AA
:1004A00022461023002100F089F8002806D01C48BD
:1004B0007844BDE81040563800F04BB910BD1048E4
:1004C00070B5006D20F001040B4800F013F90B48E3
:1004D00000F010F90A4800F00DF909E0206D20F055
:1004E0000105204600F006F9204600F040F82C46B1
:1004F000002CF3D170BD0000180000206C0000201B
:10050000C00000200000002004000020080000209F
:1005100072000000302A0000770000001C2A000052
:10052000082A0000754600F075F9AE4605006946D8
:10053000534620F00700854618B020B5FFF73EFE71
:10054000BDE820404FF000064FF000074FF00008D4
:100550004FF0000BAC46ACE8C009ACE8C009ACE811
:10056000C009ACE8C00921F007018D46704770B59D
:100570000446051F00F052F90068002C14BF4468BF
:1005800070BD002C18BFAC423CBF20466468F8D355
:1005900001680A18AA4218BF456003D12A680546B7
:1005A0001144016028684119A1421CBF6C6070BDF4
:1005B0006168696021680844286070BD70B5C468CE
:1005C000A50713D0650211D4B2F5807F09D0B2F52A
:1005D000007F06D0B2F5806F08D1012300F124011D
:1005E00006E05D1E6FF07F46B54201D3012070BD6D
:1005F0000161C361416024F470611143C160002056
:1006000070BD00002DE9F0410C461646070047D0AA
:10061000104600F06FF82078611C61280AD072281B
:1006200002D077283CD102E00125002405E0022514
:10063000042402E0082448F2020511F8010B2B28DB
:1006400006D0622809D011F8010C74280AD00BE0FA
:1006500045F0030544F00204EFE745F0040544F0DB
:100660000104EAE744F010043846214600F09FF800
:10067000411C15D00021316171604FF40071F560AB
:10068000F1617061200704D530460222002100F09C
:100690003FF9306D40F0010030653046BDE8F08133
:1006A0000020FBE72DE9F0410D460646104C206D79
:1006B000C10704D0410804D020F00104F7E7224626
:1006C0000EE0542000F0F5F807000ED0206D47F042
:1006D0000101084354212065384600F041F83A46AC
:1006E00029463046BDE8F0418CE70020D6E70000FF
:1006F000180000202DE9F04704464FF000094FF0A4
:10070000FF37C568D4E90486A80707D0204600F063
:10071000AFF9304600F055F8002802DA3846BDE857
:10072000F087280502D54046FFF721FF4C212046DF
:1007300000F016F8206D20F0010020654846EEE735
:1007400010B50446AFF300802046BDE81040FFF727
:1007500021BD10B500F0D6F9BDE8104000F0CCB9CD
:100760004FF0000200B5134694469646203922BF4A
:10077000A0E80C50A0E80C50B1F12001BFF4F7AF95
:10078000090728BFA0E80C5048BF0CC05DF804EB77
:10079000890028BF40F8042B08BF704748BF20F8E5
:1007A000022B11F0804F18BF00F8012B70470EB5D7
:1007B000CDE9000100F029FA029069460120ABBEA4
:1007C0000EBD08B5694600900220ABBE08BD1FB53E
:1007D0008DE8070069460520ABBE04B010BD1FB50B
:1007E0008DE80F0069460620ABBEF6E708B56946FE
:1007F00000900920ABBE08BD1CB5CDE900016946DB
:100800000A20ABBE1CBD704708B5694600900C209D
:10081000ABBE08BD00487047140100200048704777
:100820001C010020704770477047704738B5044678
:100830000A4600206946AFF30080002808BF38BD93
:1008400002460099204600F085F9012038BD0120BC
:1008500000F0D4B9F8B5AFF30080054600200C468F
:10086000102000BF0646A819A0420DD9324669469D
:100870000020AFF30080070008BF00F0BFF9009828
:10088000A04218BF0546C419FFF7C8FF0560074618
:10089000F01D20F007004619284600F054F9B44234
:1008A00008BFF8BDA21B31463868BDE8F84000F02B
:1008B00051B970B50646FFF7B1FF056806F10B00A8
:1008C00020F00704B4429CBF002070BD2B466A682C
:1008D000BAB11068A04210D304F1080188423CBFAD
:1008E0005068586007D35168101941601168091B9E
:1008F000016058601460101D70BD13465268002AD4
:10090000E7D121462846FFF791FF0028DED170BDD0
:100910002DE9F041044616460D464769007B8007E5
:100920002ED03846FFF762FF50BB3EB3012E02D0F7
:10093000022E25D104E0204600F026F905441DE0F2
:100940003846FFF761FFE168002841F01001E160DF
:1009500005DA204600F058F80120BDE8F081C9030F
:100960000BD56268E16A914200D81146A269114430
:100970002269891A814200DD08460544002D01DA0A
:100980000220EAE7E16A6068E268814206D29103E8
:10099000E06203D522F4003141F01002A66900277D
:1009A000AE4213DCE16A814201D90B4600E0034606
:1009B00003EB060C2369ACEB030CAC4506DD81426E
:1009C00001D98C4600E084469C4505D1A76027608C
:1009D00042F02000A5620DE0AD1BE669AE1B81422E
:1009E000A66000D90846C01A281A2060581960600D
:1009F00022F0200003490840E060002084F848709D
:100A0000ABE70000BFCFD7FFC16821F4001141F070
:100A10008001C16000218160016070472DE9F047CD
:100A2000814614460E464FF0FF383248D568576964
:100A3000054209D03846A169FFF7DEFE002811DB28
:100A40002C48C0430540E5602B46324649463846AF
:100A5000FFF7BDFEA16920F00042B21A1144002840
:100A6000A16103D02046FFF7CFFF4046BDE8F087E5
:100A700070B504460569C06A6168884200D80846B6
:100A8000E16821F42011E160C90312D5A84208D021
:100A90002246411B2846FFF7C1FF10B14FF0FF303F
:100AA00070BD0020E562C4E90150E06820F48030A8
:100AB000E060002070BD10B50446C06820F0200042
:100AC000E060A16AA06988420DD02046FFF7D0FF00
:100AD000E06820F4405040F01000E060A06AA0619F
:100AE0002069E062606044F24001E0688843E060B1
:100AF00010BD000010000200002801D000F01CB85A
:100B00007047000010B5014602A000F05EF8012019
:100B100010BD000053494752545245443A20526593
:100B20006469726563743A2063616E2774206F7024
:100B3000656E3A200000000001491820ABBEFEE7B8
:100B400026000200704700210160C0E901107047D3
:100B500010207047034640688C46002818BF884222
:100B60003CBF03464068F8D318681844884207D051
:100B70000CF1030020F00700001D411A521A014633
:100B8000081D0A60FFF7F3BC10B50146C268900764
:100B900003D0900607D5886A0AE000F05DF80121CD
:100BA0000160881E10BD8B69486818440B69C01A23
:100BB00091F848301BB191F84910401A10BD11034B
:100BC000FCD50028FADD401E10BD70B505460C4668
:100BD0000A2000E06D1C00F037F835B128780028B5
:100BE000F8D102E0641C00F02FF814B1207800283E
:100BF000F8D1BDE870400A2000F026B810B500F02A
:100C00002FF8BDE81040FFF777BF10B5431C02E096
:100C100010F8011B71B18107FAD14FF0013202C8FF
:100C20008C1A8C4314EAC211F9D0C01A0A0603D0F8
:100C3000C01E10BDC01A10BD0A0401D0801E10BD18
:100C40000902FCD0401E10BD08B569468DF80000B1
:100C50000320ABBE08BD000000487047140100200F
:100C600010B5012805D0002103A0FFF7AEFF012039
:100C700010BD09A1F8E7000053494752544D454DB6
:100C80003A204F7574206F662068656170206D652D
:100C90006D6F7279000000003A2048656170206D28
:100CA000656D6F727920636F727275707465640020
:100CB000FEE700007047000080B54FF4005000F0E0
:100CC00065F84FF4804000F061F84FF40040BDE853
:100CD000804000F05BB80000EFF3108072B600BFF8
:100CE000FEE70000B0B5044600F07AF9054640F290
:100CF0000C00C2F200000078611C18BF044400BF61
:100D000000F06EF9401BA042FAD3B0BD10B541F21D
:100D100000040A20C4F20104FFF7E4FF20464FF468
:100D2000005100F049F958B940F2DC20C2F200004D
:100D3000017819B1012903D1002100E001210170DE
:100D400020464FF4804100F037F938B120464FF487
:100D50000041BDE8104000F02FB900BF40F2DC2098
:100D6000C2F20000017807A0FFF73AFAA4F500608C
:100D7000202100F027F920464FF40041BDE8104043
:100D800000F01AB9636E743D25640A0040F2144104
:100D9000C4F201010A68024214BF08607047FFF7FD
:100DA000B5BF00002DE9F04F82B041F20042C4F21D
:100DB00001020E680423904208BF0323002E009313
:100DC00000F0F68040F2004C4FF6FF7E0022C4F2A5
:100DD000010C0124C1F2100E4FF0000A4FF000097F
:100DE00047E000BF012502F00C040F27A7402BEAC3
:100DF000070705FA04F43C4343F82640D1F804B051
:100E000040F20C455FEACB23DCF8083054BF23EAFC
:100E1000080343EA0803C4F20105CCF808302B6844
:100E20005FEA8B2454BF23EA080343EA08032B60DC
:100E30005FEA8B34DCF8043054BF23EA080343EA4A
:100E400008035FEACB34CCF80430DCF800304FF014
:100E5000010454BF23EA080343EA0803CCF8003036
:100E60000E680AF1010A36FA0AF302F1040200F0F0
:100E70009F8004FA0AF816EA080FF1D04B68734510
:100E800012DC122B56D8DFE803F0350B45495555D7
:100E900055555555555555555555554D510000BF4E
:100EA000D1F80C9046E000BF4FF6FF75C1F2210566
:100EB000AB420FDC0025C1F21105AB421AD0002570
:100EC000C1F21205AB4215D00025C1F22105AB429B
:100ED00010D02FE00025C1F22205AB420AD0002538
:100EE000C1F23105AB4205D00025C1F23205AB425B
:100EF00020D100BF8B684BB1012B14BFC0F8148008
:100F0000C0F810804FF0080914E000BF4FF004094A
:100F100010E000BFCB6803F108090BE04FF00009B7
:100F200008E000BFCB6803F1040903E0CB6803F1DC
:100F30000C0900BF13460546BAF1080F24BF203B39
:100F400004352E680F279F40BE4309FA03F333434D
:100F50002B60CB79DB067FF583AF41F21804C4F236
:100F6000020423684FEA9A0643F0010323602368D2
:100F700040F6000403F001030193019BACF57E737E
:100F800053F826B0C4F20104A0420FD040F600444A
:100F9000C4F20104A0423FF425AF41F20004C4F2C0
:100FA0000104009DA04208BF02251CE700251AE7A6
:100FB00002B0BDE8F08F00008068084018BF012033
:100FC00070470000C26802EA0103914341EA03410D
:100FD00001617047002A08BF0904016170470000E1
:100FE00040F2E020C2F200000068704740F20C00BE
:100FF00040F2E021C2F20000C2F2000100780A686B
:10100000104408607047000080B542F20000C4F24E
:101010000200016841F010010160032000F08AF82D
:10102000002000F005F800F027F8002080BD000047
:1010300070B540F20C06C2F2000640F2140132789C
:10104000C2F200014FF47A730968B3FBF2F204466E
:10105000B1FBF2F1084600F05FFB0F2C4FF00105E9
:1010600008D838B94FF0FF3021460022002500F0A3
:1010700035F87460284670BD82B041F21800C4F2A1
:1010800002000168022241F001010160016801F0E3
:10109000010101910199416841F08051416040682E
:1010A00000F08050009000980420C4F20100016814
:1010B00062F31A61016002B070470000002848BF67
:1010C000704700F01F01012202FA01F14EF20012F6
:1010D0004009CEF2000242F82010704710B54EF6DB
:1010E0000C5CCEF2000CDCF80030C3F3022E8EF064
:1010F0000704042C28BF0424BEF103034FF0FF3E75
:101100000EFA04F438BF0023A14399400EFA03F30A
:101110009A43114300F00F02043A624409010C3271
:1011200000F16043B0F1FF3FC8BF03F564421170A6
:1011300010BD00004EF60C51CEF200010A684FF6C9
:10114000FF031A4060F30A2242F0806040F0FD7015
:10115000086070472DE9F04381B0002800F08580D9
:1011600042F20008C4F202080446D8F800000D4616
:1011700000F0070088420CD2D8F8000020F00700E9
:101180002843C8F80000D8F8000000F00700A84283
:101190006BD1206841F204098107C4F2020917D516
:1011A000410705D5D9F8001041F4E061C9F80010F5
:1011B000010705D5D9F8001041F46051C9F80010B5
:1011C000D9F80010A26821F0F0011143C9F800100D
:1011D000C00741D1D8F8000000F00700A8420CD9A0
:1011E000D8F8000020F007002843C8F80000D8F81D
:1011F000000000F00700A84237D12068410707D55A
:10120000D9F80010E26821F4E0611143C9F8001038
:10121000000708D5D9F80000216920F4605040EAA1
:10122000C100C9F80000D9F8002002F00C0008281D
:1012300041F20020C0F27A0050D142F68463C2F33A
:101240008341C0F60003595CD2033BD440F6001042
:10125000C0F23D00484341E0606802280AD00128FE
:101260002AD159F8041C890308D4012001B0BDE833
:10127000F08300BF59F8041C8901F6D5D9F8001095
:1012800021F003010843C9F80000FFF7A9FE064654
:1012900041F28837D9F80000616800F00C00B0EB2B
:1012A000810F97D0FFF79CFE801BB842F2D9032034
:1012B00001B0BDE8F08300BF59F8041C8907D4D5FC
:1012C000DCE700BFD9F8002042F68263C2F3404257
:1012D000C0F600039A5C4843B0FBF2F0D9F8001066
:1012E00042F66A62C1F30311C0F60002515C40F29B
:1012F000140220FA01F140F21000C2F2000000686E
:10130000C2F200021160FFF793FE002001B0BDE8B9
:10131000F083000040F2140041F20401C2F2000028
:10132000C4F202010068096842F67A62C1F3022140
:10133000C0F60002515CC8407047000040F2140043
:1013400041F20401C2F20000C4F20201006809681F
:1013500042F67A62C1F3C221C0F60002515CC84075
:10136000704700002DE9F04182B0002868D00446A3
:10137000007841F20006C007C4F2020625D070686A
:1013800000F00C0004281BD0706800F00C00082846
:1013900002D17068C00313D46068002800F068812F
:1013A000B0F5A02F00F07C81B0F5803F00F07C818B
:1013B000306820F480303060306820F4802076E19E
:1013C0003068800301D56068D0B32078800718D5D5
:1013D000706810F00C0F07D0706800F00C0008283F
:1013E0006ED17068C0036BD43068800702D5206965
:1013F000012825D13068616920F0F80040EAC10079
:101400003060207800071FD42078400732D4E56987
:1014100095B1706800F00C00082840F08F80012D15
:101420000ED07068216A00F480328A4208D1616A65
:1014300000F47010884203D1002002B0BDE8F081B2
:10144000012002B0BDE8F081A069002862D0002030
:10145000C4F242200121C0F88014FFF7C1FD054607
:10146000706A800700F18C80FFF7BAFD401B0228EC
:10147000F6D92AE1F06910F0805808D1F06940F0FF
:101480008050F061F06900F080500090009847F2C1
:101490000007C4F200073868C00529D4386840F452
:1014A00080703860FFF79CFD054600BF3868C005B6
:1014B0001ED4FFF795FD401B6428F7D905E100BF56
:1014C0002069002840F20000C4F2422000F082802F
:1014D00001210160FFF784FD054600BF30688007E9
:1014E0003FF588AFFFF77CFD401B0228F6D9ECE002
:1014F000E068002800F08080052800F0978001282F
:1015000000F09880306A20F001003062306A20F0EC
:10151000040092E00020C4F242200021C0F88014B0
:10152000FFF75EFD054600BF706A80077FF56CAF70
:10153000FFF756FD401B0228F6D9C6E00027C4F28B
:10154000422700203866FFF74BFD022D05460BD1E0
:101550003068800140F1BE80FFF742FD401B022849
:101560004FF00300F4D968E7306880017FF564AF7D
:10157000FFF736FD401B02284FF00300F4D95CE76B
:1015800040F21400C2F20000006844F6D351C1F2E8
:101590006201A0FB0101480A019000BF00BF019851
:1015A000411E002801913FF42FAF00BF0198411E5A
:1015B000002801913FF428AF00BF0198411E002888
:1015C00001913FF421AF00BF0198411E0028019115
:1015D000E4D119E700210160FFF702FD054600BFD5
:1015E000306880077FF50DAFFFF7FAFC401B02283B
:1015F0004FF00300F4D920E7306A20F00100306298
:10160000306A20F004003062FFF7EAFC054641F240
:10161000883700BF306A800720D5FFF7E1FC401B08
:10162000B8424FF00300F5D907E700BF306A40F039
:1016300004003062306A40F001003062FFF7D0FCF5
:10164000054641F2883700BF306A800706D4FFF7AD
:10165000C7FC401BB842F7D937E000BFB8F1000F14
:101660007FF4D5AEF06920F08050F061CFE600BF86
:10167000306820F480303060306820F480203060A2
:10168000FFF7AEFC054600BF306880037FF59DAED6
:10169000FFF7A6FC401B64284FF00300F4D9CCE60A
:1016A000306840F480203060306840F48030306032
:1016B000FFF796FC054600BF306880033FF585AE16
:1016C000FFF78EFC401B6428F6D9032002B0BDE86A
:1016D000F08100BF206AB0F5803F05D17168A26833
:1016E00021F40031114371607168626A21F4741150
:1016F00010430843706001203866FFF771FC044610
:10170000306880013FF598AEFFF76AFC001B0228A5
:101710004FF00300F4D990E6411E0020B0EB116FAA
:101720001CBF012070474EF21002CEF20002516041
:101730004EF62351CEF20001F0230B70072190608A
:10174000116070477047000070470000B0B590F816
:101750003C20012A04BF0220B0BD01F108053CCDA8
:10176000D1E900CE23F47C5322F470521A432EF4B4
:10177000F0431A432CF4E0431A4324F4C0431A43C1
:101780002A43C96922F48042036811435964002145
:1017900080F83C100846B0BD10B590F83C20012AF6
:1017A0004FF0020233D080F83D200268D2F804E006
:1017B000D2F808C00C682EF07003234340F2FF7487
:1017C000C4F20004A24253600ADCB2F1804F13D08D
:1017D00040F20043C4F200039A420DD011E000BF72
:1017E00042F60043C4F201039A4205D040F60003DA
:1017F000C4F200039A4204D149682CF080031943D3
:1018000091600121002280F83D1080F83C201046B4
:1018100010BD0000002804BF0120704710B5044629
:1018200090F83D0028B9002084F83C00204600F0E4
:1018300067F8022084F83D00206840F2FF730268D8
:10184000C4F2000342F6004C9842C4F2010C15DCCD
:10185000B0F1804F1AD040F20041C4F2000188423A
:1018600014D0984218DCB0F1804F1DD040F20041F6
:10187000C4F20001884217D01AE000BF604505D0CD
:1018800040F60001C4F200018842EAD1A16822F0CA
:1018900070020A439842E6DD604505D040F600013B
:1018A000C4F20001884203D1216922F440720A4344
:1018B000A36922F08001D4F804E0E268194360458E
:1018C0000160C262C0F828E002D16169CCF8301032
:1018D00001214161002084F8461084F83E1084F80C
:1018E0003F1084F8401084F8411084F8421084F8C6
:1018F000431084F8441084F8451084F83D1010BD5E
:1019000080B582B0006840F60001C4F20001884250
:1019100014D042F60041C4F2010188420CD141F2D8
:101920001800C4F20200016841F40061016000681F
:1019300000F400600190019802B080BD41F21800EF
:10194000C4F202004168002241F004014160406895
:10195000002100F00400009000981E20FFF7BEFB5D
:101960001E2002B0BDE88040FFF7A8BB90F83D10F4
:1019700001291CBF01207047022180F83D1000683A
:1019800040F2FF72C168C4F20002904241F00101CE
:10199000C16009DCB0F1804F12D040F20041C4F2C6
:1019A000000188420CD012E042F60041C4F201016D
:1019B000884205D040F60001C4F20001884206D1F9
:1019C000816801F00701062904BF00207047016803
:1019D00041F00101016000207047000080B590F8DF
:1019E0003C20012A4FF0020200F0C28080F83D2026
:1019F000D0F800C04FF67772DCF8083023EA020214
:101A0000CCF808200B684F2B28DC1F2B44DD202B43
:101A100045D0302B43D0402B40F0AC80D1F804E0CF
:101A2000C968DCF82030DCF8202022F00102CCF874
:101A30002020DCF8182022F0F00242EA011123F005
:101A40000A0242EA0E02CCF81810CCF82020DCF88A
:101A5000081041F0470121F0300180E06F2B27DDB5
:101A6000B3F5005F48D0B3F5805F7AD0702B40F0BB
:101A70008180D1E901E3C968DCF8082043EA0E035C
:101A800022F47F4243EA01211143CCF80810DCF82C
:101A9000081041F0770162E00BB1102B6AD1DCF83D
:101AA000081021F07001194341F0070157E000BF11
:101AB000502B35D0602B5DD1D1F804E0C968DCF83B
:101AC0002030DCF8202022F01002CCF82020DCF8B6
:101AD000182022F4704242EA013123F0A00242EAC7
:101AE0000E12CCF81810CCF82020DCF8081041F0C9
:101AF000670121F0100132E0D1E901E3C968DCF8A7
:101B0000082043EA0E0322F47F4243EA01211143F5
:101B1000CCF80810DCF8081041F480411FE000BF49
:101B2000D1F804E0C968DCF82030DCF8202022F08D
:101B30000102CCF82020DCF8182022F0F00242EA62
:101B4000011123F00A0242EA0E02CCF81810CCF878
:101B50002020DCF8081041F0570121F02001CCF8DA
:101B600008100022012180F83D10002180F83C106F
:101B7000104680BD0122F5E7002804BF0120704710
:101B80002DE9F04F81B0044690F83D000D4628B98C
:101B9000002084F83C00204600F094F8022084F8ED
:101BA0003D00206844F20702816840F2FF739143D0
:101BB00081600268C4F2000342F6004C9842C4F20D
:101BC000010C15DCB0F1804F1AD040F20041C4F294
:101BD0000001884214D0984218DCB0F1804F1DD02B
:101BE00040F20041C4F20001884217D01AE000BF61
:101BF000604505D040F60001C4F200018842EAD1F8
:101C0000A16822F070020A439842E6DD604505D0E3
:101C100040F60001C4F20001884203D1216922F498
:101C200040720A43A36922F08001D4F804E0E2681C
:101C3000194360450160C262C0F828E002D16169C1
:101C4000CCF830104FF00109C0F814908268D0F839
:101C500018E0D0F820C0D5E90038D5E9027B43EA86
:101C6000020AAB694FF6FF712EEA010E47EA032321
:101C70004FF6FC47BB43D5E907724BEA0E012E69CC
:101C8000194341EA072141EA061141EA02312CF0E9
:101C900022026B6942EA080242EA0312C0F808A075
:101CA0008161026284F8469084F83E9084F83F9007
:101CB00084F8429084F8439084F83D90002001B06D
:101CC000BDE8F08FB0B586B0006840F20042C4F2C3
:101CD0000002002190420591CDE9031102913DD00F
:101CE000B0F1804F6FD141F21800C4F20200416898
:101CF00040F2001441F0010141604168002501F00B
:101D00000101019101990168C0F2007441F00401E0
:101D10000160016801F0040101910199016841F03D
:101D200008010160006802A900F008000190019814
:101D30004FF40040029040F60000C4F20100CDE9EB
:101D40000355FFF72FF80820CDE902054FF2FF30C9
:101D5000CFF6FF0000F5106523E000BF41F2180048
:101D6000C4F2020042684FF2FF3542F002024260C4
:101D70004268CFF6FF0502F002020192019A026862
:101D800042F008020260006800F00800019001982B
:101D90003020CDE9020140F20010C0F2007000F5E1
:101DA000E06440F60000C4F201000021049100F557
:101DB000806002A9FEF7F6FF0420C4F2010001686A
:101DC00029402143016006B0B0BD000080B590F805
:101DD0003E2090F83F3090F842E090F843C004294C
:101DE0000AD0B9B9012A4FF0010208BFBEF1010FB4
:101DF00034D0104680BD00BF012B4FF0010208BF58
:101E0000BCF1010FF5D1022180F83F1080F843109A
:101E100000681EE0012A4FF0010208BF012BE8D143
:101E2000BEF1010FE5D1BCF1010FE2D1022280F831
:101E30003E2080F83F2080F8422080F8432091B176
:101E40000068016A21F001010162016A41F00101AB
:101E5000016210216FF0100209E000BF022180F83A
:101E60003E1080F84210006801216FF00102036A01
:101E70001A400262026A114301620168002241F0C5
:101E800001010160104680BD7047000010B5016877
:101E900004460869800744BFC8685FEA807039D487
:101EA0000869400744BFC8685FEA40703ED40869CB
:101EB000000744BFC8685FEA007045D40869C006DF
:101EC00044BFC8685FEAC0604AD40869C0071CBF45
:101ED000C8685FEAC07051D10869000644BFC8688D
:101EE0005FEA006052D40869400644BFC8685FEAF0
:101EF000406053D40869800646BFC8685FEA8060C6
:101F000010BD6FF0200220460A61BDE81040FFF7C7
:101F10001BBC00BF6FF002000861012020778869B8
:101F2000800743D02046FFF7AFFF45E06FF0040085
:101F3000086102202077886910F4407F40D0204655
:101F4000FFF7A2FF42E000BF6FF008000861042025
:101F50002077C86980073DD02046FFF795FF3FE016
:101F60006FF01000086108202077C86910F4407FE6
:101F70003AD02046FFF788FF3CE000BF6FF0010039
:101F80000861204600F028FA2168A5E76FF080007C
:101F900008612046FFF7D6FB2168A4E76FF04000F8
:101FA0000861204600F01AFA2168A3E7204600F0F5
:101FB00025F8204600F09EF92168002020776FE781
:101FC000204600F01BF8204600F094F9216800201C
:101FD00020776CE7204600F011F8204600F08AF9DF
:101FE00021680020207769E7204600F007F82046A6
:101FF00000F080F921680020207766E77047000034
:102000002DE9F04390F83C30012B04BF0220BDE8DD
:10201000F0834FEAB202032A3CD8DFE802F0034320
:102020007FB900BF036842F600461D6A1A6AC4F20F
:10203000010622F001021A621A465C6852F818CFB3
:10204000B3428E68D1F800E025F0020545EA0605A6
:102050000CD1CE68D1E9057824F4407425F00C0544
:1020600026F004063C43354344EA08042CF0730789
:1020700047EA0E075C609F614F6809695F631D62F4
:102080009F6947F008079F619F6927F004079F61D8
:10209000AEE000BF0121002280F83C200846BDE8E8
:1020A000F08300BF036842F600461D6A1A6AC4F254
:1020B000010622F010021A621A46D3F804C052F840
:1020C000184FB3428E68D1F800E025F0200545EAAC
:1020D00006150FD1CE68D1E905986FF0400707EAE1
:1020E00006162CF4406725F0C00547EA89073543FA
:1020F00047EA880C24F4E64444EA0E27C3F804C0F7
:102100009F614F6809699F631D629F6947F400677B
:102110009F619F6927F480679F6168E0036842F6CA
:1021200000461D6A1A6AC4F2010622F480721A621D
:102130001A46D3F804C052F81CEFB3428E680C68FC
:1021400025F4007545EA06250FD1CE68D1E905983A
:10215000360240F2FF47BE432CF4405725F4406559
:1021600047EA0917354347EA081C2EF0730727434F
:10217000C3F804C0DF614F680969DF631D62DF696E
:1021800047F00807DF61DF6927F00407DF612FE010
:10219000036842F60047D3F820C01A6AC4F2010768
:1021A00022F480521A621A465C6852F81C5FD1F819
:1021B00000E08E68BB4204D14F6924F4804444EAB5
:1021C00087142CF4005747EA063725F4E64646EA1A
:1021D0000E265C60DE614E6809691E641F62DF695D
:1021E00047F40067DF61DF6927F48067DF61090278
:1021F0001368194311600021002280F83C20084632
:10220000BDE8F083002804BF0120704710B50446E4
:1022100090F83D0028B9002084F83C00204600F0EA
:1022200067F8022084F83D00206840F2FF730268DE
:10223000C4F2000342F6004C9842C4F2010C15DCD3
:10224000B0F1804F1AD040F20041C4F20001884240
:1022500014D0984218DCB0F1804F1DD040F20041FC
:10226000C4F20001884217D01AE000BF604505D0D3
:1022700040F60001C4F200018842EAD1A16822F0D0
:1022800070020A439842E6DD604505D040F6000141
:10229000C4F20001884203D1216922F440720A434A
:1022A000A36922F08001D4F804E0E2681943604594
:1022B0000160C262C0F828E002D16169CCF8301038
:1022C00001214161002084F8461084F83E1084F812
:1022D0003F1084F8401084F8411084F8421084F8CC
:1022E000431084F8441084F8451084F83D1010BD64
:1022F000704700007047000041B1082910D0042940
:1023000014BF00F1410200F13F020BE090F83E20C3
:10231000012A1CBF01207047022280F83E2013E0F2
:1023200000F140021278012A1CBF012070470222EE
:10233000082907D0042914BF80F8412080F83F20E5
:1023400002E000BF80F84020006801F01F01012278
:10235000036A8A4023EA02010162036A42F64441A9
:10236000C4F201011A43A1F14403984202620FD062
:1023700040F2FF71C4F20001884213DCB0F1804FDB
:102380001CD040F20041C4F20001884216D01CE08B
:102390000A6842F400420A6040F2FF71C4F2000190
:1023A0008842EBDD42F60041C4F20101884205D0CB
:1023B00040F60001C4F20001884206D1816801F0B4
:1023C0000701062904BF00207047016841F00101A0
:1023D0000160002070470000704700007047000057
:1023E000002804BF0120704710B5044690F8410052
:1023F00028B9002084F84000204600F061F824202D
:1024000084F841002068D4E90212C36823F4005321
:10241000C360036923F440531A430261D4E90423DF
:102420001143C268194341F20C639A431143C160DE
:102430004169A26921F44071114343F60002C4F2DC
:1024400001029042416103D0FEF764FF02E000BF49
:10245000FEF774FF6268192148439100B0FBF1F068
:1024600048F21F51C5F2EB11A0FB01235A096FF08E
:10247000630302FB0300322303EB0010A0FB010106
:10248000F02303EA5113206803EB0212C1F3431156
:1024900011448160016921F490410161416921F099
:1024A0002A014161C16841F40051C160002020212E
:1024B000606484F8411084F84210606310BD00002D
:1024C00070B586B040F60004C4F20104006804F55B
:1024D000405100268842049602D006B070BD00BF6D
:1024E00041F21800C4F20200016802AD41F48041DB
:1024F0000160016801F4804101910199016841F096
:10250000040101600068294600F004000190019870
:102510004FF40070029002200390032005902046A3
:10252000FEF740FC4FF48060CDE9020620462946C4
:102530000496FEF737FC06B070BD00002DE9F043AD
:1025400081B0044690F84100202840F0B1800F4649
:1025500000294FF0010000F0D0801646002A00F05C
:10256000CC804FF0000821201D46C4F8448084F838
:102570004100FEF735FDA684E684A1680646B1F564
:10258000805F05D12069002814BF3846B846074649
:10259000E18C2068002900F08F8005F101090AE034
:1025A00047B317F8011B4160E18C0139E184E18CEC
:1025B000002900F0818001680906F1D4B9F1000F0B
:1025C0000AD0EDB1FEF70CFD801BA84218D8206898
:1025D00001680906F6D5E3E701680906E0D4016859
:1025E00009065CBF01685FEA0161D9D40168090688
:1025F000F2D5D5E738F8021B00276FF35F21D2E749
:10260000206850E8030F216820F4D07041E80302ED
:10261000BAB3206850E8030F216820F4D07041E875
:10262000030272B3206850E8030F216820F4D070D1
:1026300041E803022AB3206850E8030F216820F420
:10264000D07041E80302002ADAD11AE0206850E88D
:10265000050F216820F0010041E80502DAB1206889
:1026600050E8050F216820F0010041E8050292B111
:10267000206850E8050F216820F0010041E80502BC
:102680004AB1206850E8050F216820F0010041E8B8
:102690000502002ADAD1202084F8410084F84200A3
:1026A000002084F84000032001B0BDE8F08300BFA3
:1026B000022001B0BDE8F0830168490619D4FDB1DC
:1026C000691C0DD10168490613D4016849065CBF35
:1026D00001685FEA41610CD401684906F2D508E05F
:1026E000FEF77EFC801BA8420AD8206800684006DE
:1026F000F6D5202084F84100002001B0BDE8F08329
:10270000206850E8030F216820F4D07041E80302EC
:10271000E2B3206850E8030F216820F4D07041E84C
:1027200003029AB3206850E8030F216820F4D070A8
:1027300041E8030252B3206850E8030F216820F4F7
:10274000D07041E80302002ADAD11FE0206850E887
:10275000050F216820F0010041E80502002A9AD007
:10276000206850E8050F216820F0010041E80502CB
:10277000002A3FF490AF206850E8050F216820F050
:10278000010041E80502002A3FF485AF206850E8C7
:10279000050F216820F0010041E80502002AD5D18B
:1027A00079E70000FEE700002DE9F04786B04FF022
:1027B000000941F21800CDF81490C4F2020001683B
:1027C00040F6000541F0100101600168C4F2010506
:1027D00001F01001019101990168002241F02001EE
:1027E000016001684FF0F00A01F0200101910199A8
:1027F000016841F004010160016801F004010191E8
:102800000199016841F0080101600068F02100F0C1
:102810000800019001982846FEF7DCFB05F580646E
:1028200020464FF2402100224FF24028FEF7D2FB13
:102830004FF4604002900020C1F2210002AE0390EC
:10284000012705F5006031460497FEF7ABFA062034
:10285000CDE90209284631460497FEF7A3FA4FF066
:10286000020928463146CDE902A70497CDF8149015
:10287000FEF798FA4FF44060029012200390032074
:10288000059020463146FEF78DFA20463146CDE9C7
:102890000287CDE90479FEF785FA2820032100227A
:1028A000FEF71CFC2820FEF709FC06B0BDE8F08707
:1028B00070B59CB040F60004C4F2010440F27410FC
:1028C000002104F51052C2F200004723FA268025A9
:1028D0001691CDE914111191CDE90F11CDE90D112A
:1028E000CDE90B11CDE90911CDE90711CDE90511AC
:1028F000CDE90311CDE90111C0E90023C0E90216B9
:10290000C0E904118561FEF785FF002818BFFEF7B6
:10291000E3F94FF48050139040F27410C2F20000BB
:1029200013A9FFF75BF8002818BFFEF7D5F940F2AE
:102930007410C2F20000FFF765FC002818BFFEF714
:10294000CBF940F274100025C2F2000010A9CDE9C5
:102950001055FEF721FF002818BFFEF7BDF96020D3
:1029600009907D20CDE90A0540F27410C2F2000002
:1029700009A90022CDE90C55CDE90E55FFF740FB22
:10298000002818BFFEF7A8F940F274154FF4005064
:10299000C2F200050026069001A928460596CDE959
:1029A0000366CDE901660896FEF7D0FE002818BF41
:1029B000FEF792F9286840F60001C4F2000188424F
:1029C000CDE91966189615D042F60041C4F201010E
:1029D000884228D141F21800C4F20200016841F097
:1029E00004010160006800F00400179017984FF48C
:1029F000807010E041F21800C4F20200016804F592
:102A0000806441F008010160006800F00800179040
:102A100017984FF4C0701890022019901B9018A9B5
:102A20002046FEF7BFF91CB070BD000080B58CB029
:102A300040F2BC100021C2F200004FF08042C0E919
:102A4000002103224FF6FF73CDE903210122CDE9D6
:102A50000011C0E9021301618161CDE90521CDE9D1
:102A60000711CDE909210B9103A9FFF785F800288B
:102A700018BFFEF731F940F2BC10C2F200006946FF
:102A8000FEF78AFE002818BFFEF726F90CB080BDBD
:102A900080B58CB040F2042040F200420021C2F226
:102AA0000000C4F20002C0E9002103224FF6FF73C8
:102AB000CDE903210122CDE90011C0E90213016132
:102AC0008161CDE90521CDE90711CDE909210B91FE
:102AD00003A9FFF751F8002818BFFEF7FDF840F2F0
:102AE0000420C2F200006946FEF756FE002818BF17
:102AF000FEF7F2F80CB080BDB0B594B040F600051A
:102B000040F24C20C4F200050021C2F2000047222E
:102B100031230E91CDE90C110991CDE90711CDE9D1
:102B20000511CDE90311CDE90111C0E90052C0E959
:102B3000021301618161FEF76DFE002818BFFEF7E8
:102B4000CBF84FF480500B9040F24C20C2F20000C2
:102B50000BA9FEF743FF002818BFFEF7BDF840F2AF
:102B60004C20C2F20000FFF74DFB002818BFFEF713
:102B7000B3F840F24C200024C2F2000008A9CDE9CD
:102B80000844FEF709FE002818BFFEF7A5F86020EC
:102B900001900A20CDE9020440F24C20C2F200006C
:102BA00001A904220594FFF72BFA002818BFFEF7AD
:102BB00093F840F24C241E20C2F20004029001A9B6
:102BC00020460822FFF71CFA002818BFFEF784F8F9
:102BD00020680021A84212911191109118D042F65C
:102BE0000041C4F2010188422AD141F21800C4F226
:102BF0000200016841F004010160006800F0040077
:102C00000F900F984FF48070109005F5803011E010
:102C100041F21800C4F20200016841F008010160AD
:102C2000006800F008000F900F984FF4C0701090EB
:102C300005F5823002211191139110A9FEF7B2F827
:102C400014B0B0BD80B540F2942043F60001C2F24A
:102C50000000C4F2010100234FF00C0C4FF4165297
:102C600080E80E00C0E90333C0E905C3C361FFF784
:102C7000B7FB002808BF80BDBDE88040FEF72CB838
:102C8000FEE70000FEE7000070470000704700000C
:102C9000FEF7ACB97047000040F24C20C2F20000D1
:102CA000FFF7F4B8FEE7000080B582B0019040F273
:102CB0009420C2F2000001A901223223FFF73EFC5A
:102CC000019802B080BD000090B0FEF79DF900248D
:102CD0000120CDE90B44CDE9094406900A904FF458
:102CE000E0104FF4803102250F9006A8CDE90714BB
:102CF000CDE90D51FEF736FB20B1EFF3108072B62F
:102D0000FEE700BF0F20CDE901054FF4A060CDE93B
:102D1000040401A802210394FEF71CFA20B1EFF38A
:102D2000108072B6FEE700BF40F60004C4F2010452
:102D3000FFF73AFDFFF7BCFDFFF784FFFFF7DCFE6E
:102D4000FFF774FEFFF7A4FE40F24C25C2F2000527
:102D500028460421FFF7D0FA28460821FFF7CCFACD
:102D600040F2BC16C2F2000630463C21FFF72EF8B6
:102D700040F20427C2F2000738463C21FFF726F84C
:102D8000306847F230514162386841623046FEF7A0
:102D9000EDFD3846FEF7EAFD28684FF0320804F5ED
:102DA0008066C0F83880C0F83C803046402101225F
:102DB000FEF710F930464FF400710122FEF70AF9D0
:102DC000204610210122FEF705F930464FF48051CC
:102DD0000122FEF7FFF840F2DC27C2F200074FF0B5
:102DE000280907E028202968C1F83880C8630A202C
:102DF000FDF778FF38780128F9D120460221FEF747
:102E0000DBF8064620460421FEF7D6F8012E08BF5F
:102E10000028E7D0B6FA86F14A09411EB1FA81F1DD
:102E2000002E4FEA511108BF012801D042B90DE030
:102E300029680122C1F83890C1F83C8001212AB1EB
:102E400020B92868C0F83890C0F83C90701EB0FADD
:102E500080F0400908400128C9D13220C3E73A7404
:102E600074003A7474003A747400000000000000AA
:102E70000000010203040607080900000000010227
:102E80000304010202030405060708090A0B0C0DDE
:102E90000E0F1010B82E00080000002018000000CF
:102EA00028010008D02E000818000020D0080000DB
:102EB00044010008000000000000000000000000C5
:102EC0000000000001000000100000000024F400D9
:04000005080000ED02
:00000001FF
