:020000040800F2
:10000000C00A0020B901000895450008E93D000834
:10001000914500080D1C0008FD500008000000007C
:10002000000000000000000000000000DD4E00089D
:100030001D1C000800000000D94E0008E14E000819
:10004000D3010008D3010008D3010008D301000840
:10005000D3010008D3010008211C0008491C000836
:10006000511C0008591C0008D3010008D3010008E6
:10007000D3010008D3010008111C0008D3010008B7
:10008000D3010008D3010008D3010008D301000800
:10009000D3010008D3010008D3010008D3010008F0
:1000A000D3010008D3010008D3010008D3010008E0
:1000B0000D4F0008194F0008D3010008D3010008B4
:1000C000D3010008D3010008D3010008D3010008C0
:1000D000D3010008F1500008D3010008D301000843
:1000E000291C0008D3010008D301000800F002F821
:1000F00000F053F80AA090E8000C82448344AAF16F
:100100000107DA4501D100F048F8AFF2090EBAE86C
:100110000F0013F0010F18BFFB1A43F0010318473B
:100120005476000074760000103A24BF78C878C175
:10013000FAD8520724BF30C830C144BF04680C60ED
:10014000704700000023002400250026103A28BF35
:1001500078C1FBD8520728BF30C148BF0B60704739
:10016000662906F0D585642900F05A80782900F0C8
:100170009380002070471FB500F0B8FF04000020F6
:10018000002106F061FA401C60600020002106F0AA
:1001900045FAE0601FBD10B510BD01F081FA1146AF
:1001A000FFF7E9FF05F068FB01F0DEFC03B4FFF7A1
:1001B000F2FF03BC01F022FD0948804709480047CF
:1001C000FEE7FEE7FEE7FEE7FEE7FEE7FEE7FEE707
:1001D000FEE7FEE704480549054A064B7047000064
:1001E000094F0008ED000008C0040020C00A0020EC
:1001F000C0060020C00600200FB41CB5074B06AA9D
:100200007B4469460090059800F06FFC0020694629
:1002100000F07EFC1CBC5DF814FB00000D09000022
:100220002DE9F0410646002410687529314616A5CF
:1002300010D0AFF30080002802DA404213A507E097
:1002400031688A0701D512A502E0490704D511A536
:10025000012401E0AFF3008000210A2206F1240707
:1002600009E0B0FBF2FCB0FBF2F302FB1C00303003
:1002700078541846491C0028F3D123462A463046B4
:10028000BDE8F04100F0C4B9000000002D000000FE
:100290002B0000002000000070B504460D462146EA
:1002A0001068AFF300802188090502D50F4A7A440F
:1002B00002E00E4A7A440E32002104F1240305E0E4
:1002C00000F00F060009965D5E54491C0028F7D126
:1002D00020780023000704D5702D02D009B1022335
:1002E00011322046BDE8704000F092B95E6B00000C
:1002F0002DE9F0474FF0000A89460446C0F820A0D7
:100300002046E1688847002876D0252806D0D4E921
:1003100001219047206A401C2062F1E7E1682046F5
:1003200000258847C4F81CA006460027C4F818A07A
:100330002A2E09D0304606F004F938B304EB8708BA
:10034000303EC8F8186019E059F8041B204604EB49
:1003500087029161E1688847012F064618D1E0695C
:10036000002820DA25F020051DE0D8F8180000EB61
:10037000800006EB40003038C8F818002046E168DD
:100380008847064606F0DDF80028EED1012F0AD096
:100390002E2E08D12046E16888477F1C0646022F92
:1003A00045F02005C4DBA069002803DA404245F08F
:1003B0000105A061E80701D025F01005B6B1A6F14E
:1003C0004100192802D8203645F400654A463146D6
:1003D000204625604D46FFF7C3FE58B1012806D0E0
:1003E000ED1D25F0070000F1080989E704E005F19B
:1003F000040985E730468AE7206ABDE8F0870000F7
:100400000FB400B58DB010A9099000910B904FF07A
:10041000FF300A9000200C90064878440690064869
:1004200078446A4607900F9909A800F007FE0DB0BE
:100430005DF814FB3F0C0000570C00002DE9FF5F36
:100440001D464FF0FF3B91464FF000085F46D5E94F
:100450000146A96901987F1C8847296A8246884716
:100460000028F6D1BAF1FF3F0CD0002E24F4C0646E
:1004700019DD600614D5BAF12B0F09D0BAF12D0F92
:100480000ED103E0584604B0BDE8F09F44F4806408
:10049000A96901987F1C8847761E8246002E02DDDE
:1004A000BAF1300F03D0B9F1000F26D032E0A969BC
:1004B000761E01987F1C44F400748847002E824603
:1004C00005DDBAF1780F06D0BAF1580F03D0B9F1B3
:1004D000000F10D01EE0B9F1000F02D0B9F1100FDB
:1004E00018D1A969761E01987F1C24F400748847EE
:1004F0008246102002E0082000E00A20814609E040
:10050000A96908FB0908761E01987F1C44F4007451
:1005100088478246002E05DD4946504600F0FDFA28
:100520000028EDDAE96901988847A00502D46FF048
:100530000100A8E7E00725D1600613D5600502D5C4
:10054000C8F1000000E0404629680A1D2A600968D9
:10055000220501D5087015E0220701D5088011E0B9
:1005600008600FE02868011D29600068210502D598
:1005700080F8008006E0210702D5A0F8008001E0A5
:10058000C0F8008038467EE710B5431C02E010F842
:10059000011B71B18107FAD14FF0013202C88C1AE8
:1005A0008C4314EAC211F9D0C01A0A0603D0C01E47
:1005B00010BDC01A10BD0A0401D0801E10BD090272
:1005C000FCD0401E10BD4FF000020429C0F0128084
:1005D00010F0030C00F06485CCF1040CBCF1020FA8
:1005E00018BF00F8012BA8BF20F8022BA1EB0C01CB
:1005F00000F056BD5FEAC17C24BF00F8012B00F873
:10060000012B48BF00F8012B7047704770477047B7
:100610002DE9F0470D4699469246044600F124081C
:100620000168880604D5E06921F01001216000E02E
:100630000120A84201DD471B00E00027A1697A19CB
:1006400002EB0900081AA0612078C00602D42046F7
:10065000AFF30080002608E0D4E901211AF8060073
:100660009047206A401C761C20624E45F4DB2078BF
:10067000C0060AD52046AFF3008006E0D4E9012188
:1006800030209047206A401C2062381EA7F10107E5
:10069000F4DC07E0D4E9012118F805009047206A4E
:1006A000401C2062281EA5F10105F3DC2046AFF3B3
:1006B00000802078000602D50220BDE8F0870120E6
:1006C000FBE72DE9FF4F0C461E464FF0FF378BB07E
:1006D000D2E90001DDF860800A908A46C1F30A552C
:1006E00005B93D46002108464FF00000BAF1000F61
:1006F00000F4400005DA00EB80004FF4400101EA0D
:1007000050004FEA9059B9F1010F00DDB9460A983F
:1007100050EA4A000ED044F61050A5F2FF3545438A
:100720002F14B8F1000F1ED07542291E1EDDC9F12D
:1007300000021CE0B8F1010F4FF0000001D03021A1
:1007400003E0F24305E02154401CB042FBDB30469D
:100750000022002121540B99C1F80880C1E9002032
:100760000FB0BDE8F08FBD1B6D1CDEE74A4600DA16
:10077000694206A800F01EFF06AB93E8070003AB32
:1007800083E8070050460A9905F012FA8DE8070041
:10079000A0F500501F3800900398002D0ADD42F2AA
:1007A0001F014A460844002303A90390684605F048
:1007B000BDFC09E0A0F500504A461F38002303A9FC
:1007C0000390684605F0DCFC8DE807000004000C8F
:1007D00003D04FF0FF30410800E01046B8F1000FA1
:1007E00003D00022009215461EE0751E05D400F0CD
:1007F00098FC303262556D1EF9D5B346012208438C
:1008000002D000227F1C04E02078302801D1002291
:100810007F1E002A099784D01DE0112D07DA00F011
:1008200080FC303262556D1C50EA0102F5D108435C
:1008300002D00098C8B10EE00021681E05E0235CDC
:10084000625C63542254401E491C8142F7DBAB4674
:10085000A81B401E0990002004F80B000B98099A71
:10086000C0F80880C0E9002B7AE711264FF0000895
:1008700057E72DE9F04F88460446D21D22F00701C4
:1008800091B0D1E90001CDE90A0105F0C5FD0246AC
:100890000B98C00F01D02D2007E02068810701D5FB
:1008A0002B2002E0202101EAC000032A099001D098
:1008B000072A05DB03464146204600F081FC0BE198
:1008C0002078800601D5E06900E00620B8F1650FC8
:1008D000814606D0B8F1660F18D0B8F1670F70D115
:1008E00031E00020B9F1110F009001DB112301E08C
:1008F00009F101030AAA01A90CA8FFF7E2FEDDE94C
:100900000C70002609F10105834647E001204B46A3
:1009100000904FF000470AAA01A90CA8FFF7D1FEEA
:10092000DDE90DB00C995D46002610B909F1010012
:100930000D18B9EB050003D4C0F1FF3609F101052C
:10094000A5EB09002BE0B9F1010F01DA4FF0010925
:100950000020B9F1110F0090484601DD112300E09D
:1009600003460AAA01A90CA8FFF7ABFEDDE90C704B
:100970004D4600268346207800070AD4AB4500DAAE
:100980005D4601A8012D04DD411911F8011C302933
:1009900007D04F4502DA17F1040F04DA012082462E
:1009A0000FE06D1EEEE7002F02DCED1B3E4403E07E
:1009B000781CA84200DD7D1CB81B00F1010A4FF035
:1009C00000472078000703D4AA4501DB4FF0FF3A27
:1009D0000021B7F1004F0DF143088DF8431024D0EA
:1009E00002202B23002F01DA7F422D230A21021E31
:1009F000A0F1010000DC5FB197FBF1FC97FBF1F285
:100A000001FB1C7C17460CF1300C08F801CDEEE719
:100A1000A8F1010003702188090501D5452100E0F6
:100A20006521A0F1010800F8011C09980FA9A1EBAC
:100A30000807FF1D00B10120411901EBEA70A1690F
:100A40003844081A401EA0612078C00602D420460F
:100A5000AFF30080099828B1D4E901219047206ABA
:100A6000401C20622078C00622D52046AFF30080CB
:100A70001EE0002E04DBB34502DD01A8805D00E02E
:100A80003020D4E901219047206A401C2062761C66
:100A9000AAF101005FEA000A0AD100F027FBC06852
:100AA0000168405CD4E901219047206A401C206223
:100AB000281EA5F10105DCDC07E0D4E9012118F8C6
:100AC000010B9047206A401C2062381EA7F10107E5
:100AD000F3DC2046AFF30080032011B041E60000B4
:100AE00001694A1C02610878704700B58FB0CDE9F2
:100AF00001310021059105497944CDE903101146E2
:100B00006846FFF7F5FB0FB000BD0000E5FFFFFFF3
:100B10000A6802F8010B0A6070473A2800D23038A0
:100B200020F02002412A01D3A2F13700884201D3EC
:100B30004FF0FF30704700002DE9FF4F06468BB0A5
:100B40000878FF2806D0491C2D2805D000244FF036
:100B5000000908E000200CE00124F8E709EB890314
:100B6000491C00EB43090878FF28F7D114B1C9F1FB
:100B700000008146107800252C46AA4629462D28DB
:100B800001D02B2804D1521C2D2813D000208246DE
:100B90008B461078FF280FD04FF0000C0A21521C12
:100BA000A5FB017804FB018105FB0C11C5194BEB7A
:100BB0000104EEE70120EAE7002108464FF00000BB
:100BC000BAF1000F02D000EB80004008C0F381575B
:100BD000012F01DD4FF0FF370E9955EA040009EBB4
:100BE00001080BD04FF0020918F5FA7F16DA4FEA28
:100BF000CA70002F706008DD012007E04FEACA705C
:100C0000C6E900B00FB0BDE8F08F0020306000F002
:100C100071FAC0F800901821084616E0B8F5FA7F7E
:100C200018DD002F02DAF748784401E0F6487844EE
:100C3000D0E90010C6E9001040EACA70706000F008
:100C400059FAC0F80090142108460FB0BDE8F04FE3
:100C500006F05BB8002108464FF00000B8F1000133
:100C6000099002DAC7F1000200E03A4601DAC8F161
:100C7000000106A800F09EFC06AB93E8070003AB5A
:100C800083E8070044F23E005BEA04010090584606
:100C900004D144F21E012C465D460091210C09044A
:100CA000014306D10099240444EA15442D04103967
:100CB000009104F07F41014306D10099240244EAE7
:100CC00015642D020839009104F07041014306D1EA
:100CD0000099240144EA15742D01091F009104F0C4
:100CE0004041014306D10099A40044EA9574AD0047
:100CF000891E009104F00041084304D100986D1949
:100D00006441401E00904FF001033A466846B8F136
:100D1000000FCDE9014503A902DD05F046FA01E027
:100D200005F019FABAF1000F04460D4601D084F01F
:100D30000044002108464FF00000099940F2FF7777
:100D4000484010F00C0F07D124F00040284303D096
:100D5000C4F30A50B84212D100F0CCF9C0F80090A8
:100D6000C4F30A50B8420AD1A8487844D0E9001028
:100D7000C6E9001004F000410843706042E7C6E98C
:100D800000543FE72DE9FF4F1F464FF0000A4FF098
:100D9000FF38454691B0D7E90146CDF83CA000F0B8
:100DA000A5F9C0680168405C1090B96912986D1C83
:100DB0008847396A814688470028F6D1B9F1FF3F54
:100DC0000AD0002E24F4D06411DDB9F12B0F08D025
:100DD000B9F12D0F0BD102E0404615B013E744F4F2
:100DE0008064B96912986D1C8847761E814660053B
:100DF00004A901D52D2000E02B20002E01F1010BCC
:100E00000DF130088DF810003FDDB9F1690F08D001
:100E1000B9F1490F05D0B9F16E0F02D0B9F14E0FFB
:100E20001CD13B4601A8009580E85002DDE9121272
:100E30006FF0020005F0D2FFC11CCED10EE0B969FF
:100E400012986D1C884781461398761E44F40074EE
:100E500005600F98401C002E0F9016DDB9F1300F81
:100E6000EDD0B9F1780F02D0B9F1580F0DD10F982C
:100E700001280AD13B46CDE90054DDE91212001FDA
:100E8000029605F0A9FFC11CA7D1109989453ED152
:100E900044F0800406E01399681CAAF1010A44F4A6
:100EA00000740860B9696D1C1298761E8847302856
:100EB0008146F0D02BE01099894505D1200603D456
:100EC000761E44F0800418E0484605F03AFB08B36B
:100ED000761E0DF123029345A9F1300044F400740D
:100EE00006D20BF8010B200607D5AAF1010003E09A
:100EF000200602D40AF101008246A00502D513990A
:100F0000681C0860B96912986D1C88478146002EDC
:100F1000D1DC53E0002E51DDB9F1650F02D0B9F1FB
:100F2000450F4BD1A00549D5B9696D1C1298761EA5
:100F300024F440748847002E81460CDD2B2804D011
:100F4000B9F12D0F07D144F48074B96912986D1C62
:100F50008847761E8146E00501D52D2100E02B2132
:100F600008F8011BCDF8008021E0761E0DF1390153
:100F7000884544F400740CD2A9F1300010F0FF0051
:100F800088F8000002D10099884509D908F10108C4
:100F900006E0E00501D51E4801E042F20F708246EE
:100FA000B96912986D1C8847814613980560002E18
:100FB00004DD484605F0C5FA0028D6D1F969129833
:100FC0008847FF2053468BF8000088F80000002077
:100FD0000A900B9004AA0CA90AA8FFF7ADFDA00582
:100FE00002D46FF00100F8E614F0240F12D0E007ED
:100FF0001CD13868DDE90A12031D3B600068C0E9B6
:10100000001213E0706B0000626B0000266A0000A3
:10101000F1D8FFFF0AA9684605F022FAE00705D1DA
:101020003868009A011D3960006802602846D4E6DD
:10103000026811441378016018467047D160054971
:1010400079445161044979441162002111611146CA
:1010500000F0F6B8EDFFFFFF63010000426842B107
:10106000016811F8013B23B1521EC0E90012184675
:1010700070470121C160881E704742685AB1C36839
:10108000016843B983688B4205D0491E521CC0E9F0
:101090000012002070474FF0FF3070474FF0000201
:1010A00000B5134694469646203922BFA0E80C505E
:1010B000A0E80C50B1F12001BFF4F7AF090728BF39
:1010C000A0E80C5048BF0CC05DF804EB890028BFB5
:1010D00040F8042B08BF704748BF20F8022B11F0DE
:1010E000804F18BF00F8012B704700000048704780
:1010F000380000200048704718000020B2F120039B
:101100000AD5C2F1200301FA02F120FA03F341EA01
:10111000030100FA02F0704700FA03F14FF00000FB
:10112000704730B5B0F10A0271F100034FEA900E3A
:101130004EEA817EB0EB0E0061EB91014FEA101E8A
:101140004EEA017E10EB0E0041EB11114FEA102E1A
:101150004EEA016E10EB0E0041EB11214FEA104EEA
:101160004EEA014E10EB0E0041EB1141401841F1E7
:1011700000014FEAD00040EA41704FEAD1014FEA46
:10118000810444EA907410EB800544EB01046D196E
:1011900044EB0404521BA3414FF0000348BF0A3242
:1011A00000D530BD401C41F1000130BD10B50446F2
:1011B00000F09CFA0068005D00F0010010BD000026
:1011C0002DE9F0411F46044603260168072A01F471
:1011D000006004DB08B116A505E016A503E008B120
:1011E00015A500E015A521F010002060A069C01E23
:1011F000A0610FB1401EA0612046AFF300804FB147
:10120000D4E9012138469047206A401C2062C01C66
:10121000206206E0206AFAE7D4E9012115F8010B03
:101220009047761EF8D22046AFF30080BDE8F081EB
:101230004E414E006E616E00494E4600696E66007A
:101240002DE9F34F4FF0000A0C4656468DB00120B1
:101250000C9001F10C000B9062690B9801219047F2
:10126000051E2DD0252D2CD0216A8847C0B162697A
:101270000B9801219047216A88470028F7D16269BD
:10128000411E0B98904700E0761CA1690D98884795
:10129000216A88470028F7D1E1690D988847DBE784
:1012A000A1690D988847A842074601D1761CD3E76B
:1012B000E1690D9888477F1C02D1BAF1000F6FD009
:1012C0006BE162690B9800273D46394690472A2812
:1012D00004D162690B98012190470125DFF8D08283
:1012E00062690B9801219047A0F130010A290AD2C6
:1012F0004745E5DC07EB870100EB4107303FDFD4D2
:1013000045F01005ECE7E90601D46FF000476C28C2
:101310000AD04C2814D0682815D06A280DD074281B
:101320001CD07A281AD01DE062690B9801219047E1
:101330006C2802D045F0040514E045F002050DE0EC
:1013400045F020050AE062690B9801219047682862
:1013500002D045F0080505E045F4006562690B9888
:1013600001219047C4E9015765283DD019DC582870
:101370007AD00CDC452837D004DC252826D041283B
:101380009ED131E046282FD0472899D12CE05B2808
:1013900077D0612828D063287CD0642823D15AE0F4
:1013A000F6E06F2848D008DC66281DD067281BD0DF
:1013B000692821D06E2816D127E0702845D07328DF
:1013C00068D0752847D078280DD14DE0A1690D98D7
:1013D0008847252805463FF469AFE1690D9888479D
:1013E0006D1C3FF46AAFD8E00D9923466A466FF052
:1013F000010005F0EFFCC5E045F0400023464FF04A
:1014000000026060A80736D43EE0E8077FF447AFEB
:101410002068011D21600068290501D506701BE7C1
:10142000290701D5068017E7A90703D5F117C0E9F9
:10143000006111E706600FE745F0400023464FF0DA
:1014400008026060A80716D41EE040F60E0125EAE7
:101450000100606016E045F0400023464FF00A02AC
:101460006060A80707D40FE045F040006060A8075F
:1014700008D5234610220D996FF00100AFF30080CC
:1014800080E007E0102223460D996FF00100FEF77F
:10149000D5FF77E04FF0000963284F46C8464B461A
:1014A000CB4602D05B2806D038E0E80601D4012004
:1014B000A060012732E06269D4F80CB00B980121DA
:1014C00090475E2807D14FF0010949466269D4F878
:1014D0000CB00B989047216939B900210A4603AB3B
:1014E00043F82120491C0829FADBD8B3216949B304
:1014F00008F1010862690B98012190475D28F4D139
:10150000B9F1000F09D0002003A951F82020D243DF
:1015100041F82020401C0828F7DB03AB2069002895
:1015200020794FEA40701ED05B462246CDF80080FD
:10153000CDE901970D9900286FF0010020DAAFF393
:1015400000801FE0C11703AA00EBD1614B1121F00D
:101550001F0102EB8302411A1368012088400343F4
:101560001360C7E719E00D99224600286FF00100CB
:10157000009702DAAFF3008004E0AFF3008001E0EF
:10158000AFF3008000280ADA401C06D10C9820B185
:101590004FF0FF300FB0BDE8F08F5046FAE7E90793
:1015A00001D10AF1010A064400200C9054E6000023
:1015B000CCCCCC0C2DE9F047814616468AB0354894
:1015C00078440DC88DE80D0032487844801C03AC87
:1015D0000DC884E80D0041F69B300844372190FB8C
:1015E000F1F290FBF1F5A5F1800501FB12041B3C23
:1015F00002D56442012000E00020DFF898A0804678
:101600000027FA44AAF1BE0A0EE0E0070AD03246EB
:10161000684607EB470101230AEB810104F0B0FDA6
:101620008DE8070064107F1C002CEED1194F7F4419
:10163000AE3F19E0E80715D007EB04100DF1180ACA
:1016400090E80E008AE80E00C068F04201D19819B7
:1016500008903246012306A903A804F091FD03ABCC
:1016600083E807006D10641C002DE3D14FF00103E7
:1016700032466946B8F1000F03A802D004F056FDC7
:1016800001E004F07DFDC9E90001C9F808200AB0B5
:10169000BDE8F087F05800000048704718000020AF
:1016A0007546FFF7F9FFAE4605006946534620F040
:1016B0000700854618B020B5FEF78CFDBDE8204038
:1016C0004FF000064FF000074FF000084FF0000BFE
:1016D000AC46ACE8C009ACE8C009ACE8C009ACE86D
:1016E000C00921F007018D467047000010B5FFF7D3
:1016F000FDFC001D10BD00BF514F000010B5FFF7ED
:10170000F9FC006810BD10B50446FFF7F3FC046057
:1017100010BD00002DE9FF4F1F464FF03C0987B078
:101720004FF00042DDE9141001F10108DDF858A086
:1017300002EA405003900020059083460546044687
:101740000490B969461E08988847AAF1010A0290D8
:10175000BAF1000F3BDD02982E2815D01021FFF7BB
:10176000DCF900282EDB4FF0010B0599014317D05F
:10177000B9F1000F0BDB4A46C117FFF7BFFC054369
:101780000C43A9F1040905E0012004900BE008B125
:1017900045F0010501200590049820B9361D02E0AE
:1017A000049800B1361FB969089808F10108884704
:1017B000BBF1000FAAF1010A0290C9D00999C1F842
:1017C0000080C5E70298702808D0502806D0F96933
:1017D00008988847BBF1000F14D04FE0002002901A
:1017E0000120BBF1000F049009D0B969089808F1F5
:1017F00001088847AAF10109B9F1000F07DCF9696E
:10180000089888476FF001000BB0BDE8F08F2B28D7
:1018100004D02D280CD14FF0FF300490B9690898FE
:1018200008F101088847A9F10109B9F1000FE6DDC7
:10183000411CE4D00A21FFF770F90028DFDB029990
:1018400008F1010801EB810100EB41000290B96948
:10185000089888470A21FFF760F9099AA9F1010958
:10186000B9F1000FC2F8008001DD0028E7DAF9695C
:10187000089888470499029800FB016655EA04001D
:1018800004D004F04041090002D006E0039898E03B
:10189000A40044EA9574AD00B61E04F000410800AF
:1018A00002D16D196441761E159810F0240F03D0F3
:1018B0004FF00B095C4803E04FF028096FF07D0002
:1018C0008246564507DAAAEB06018944B9F1410F71
:1018D00001DD4FF0410901200021A9F10102FFF7CC
:1018E0000DFC024628400B462140084301D001214F
:1018F00000E00021501E029143F1FF3128402140B9
:10190000084301D0012000E000200299834651EAFB
:101910000B014FD0002108464FF00000039900F45E
:10192000400039B100EB80004FF4400100EBD07073
:1019300001EA60008015012802DD4FF0FF3000E071
:1019400013D0401C36D0029860B3BBF1000F0CD10D
:101950004A4601200021FFF7D1FB284021400843DF
:1019600001D0012000E00020E0B101204A46002122
:10197000FFF7C4FB034640190A4661412D1A8C410A
:1019800011D3B9F1400F09DD159810F0240F02D0E2
:10199000AAF1340603E0AAF1170600E0761C002540
:1019A0004FF0004406E05B1E42F1FF3220EA0305DF
:1019B00021EA0204CAF10100B04206DA1B49039889
:1019C00008430190002000900EE0039AC4F3D32155
:1019D000E80A0A43164940EA44500A433146CDE931
:1019E0000002684604F0A2FD159810F0240F0BD0F9
:1019F0001598C00715D13868DDE90012031D3B605A
:101A00000068C0E900120CE002A8694604F028FD55
:101A10001598C00705D13868029A011D3960006821
:101A200002604046F0E6000002FCFFFF0000F07F8D
:101A30000000F03F2DE9FF4F92461D4685B04FF064
:101A40000041DDE9124BDDE914727F1E01EA4B50C3
:101A5000414940F0FF4940EA0108002122F02000FE
:101A60004928049102D04E2828D04CE03BA0012602
:101A700007C88DE80700A9690698641C88477F1E7F
:101A8000014606D41DF8060018B121F0200181425C
:101A90000BD0E96906988847032E34D0082E32D03F
:101AA0006FF0010009B0BDE8F08F761C032E01D065
:101AB000082EE0D1601CCAF80000DCE7A96906988E
:101AC000641C88477F1E2AD420F02000412826D19C
:101AD000A9690698641C88477F1E20D420F0200046
:101AE0004E281CD1A9690698641C88477F1E48F4BB
:101AF000002849F48009CAF8004001D4282806D0FB
:101B0000E969069888475FEACB7012D022E0A9699C
:101B10000698641C88477F1E01D4002803DAE9690F
:101B200006988847BCE72928F1D1641CCAF8004010
:101B3000E9E71BF0240F07D028680499031D2B60E8
:101B40000068C0E9001805E02868021D2A600068E6
:101B5000C0F800902046A5E70000F07F494E4649B6
:101B60004E4954590000000010B50446AFF3008000
:101B70002046BDE81040FEF719BB00004FF0013CC5
:101B800050F8042B51F8043B9A4221D1A2EB0C03EC
:101B9000934313EACC1317D150F8042B51F8043BAC
:101BA0009A4215D1A2EB0C03934313EACC130BD149
:101BB00050F8042B51F8043B9A4209D1A2EB0C03D4
:101BC000934313EACC13DBD04FF00000704700BF03
:101BD000D01A01BAB1FA81F101F0180122FA01F02C
:101BE000CB40DBB2C0B2C01AC1F120012CFA01F324
:101BF000D11A914311EAC311E6D170470149182067
:101C0000ABBEFEE72600020070470000FEE70000C2
:101C100040F28010C2F2000000F09EB87047000051
:101C2000012000F0D1BA000080B54FF4005000F060
:101C3000CBFA4FF4804000F0C7FA4FF40040BDE803
:101C4000804000F0C1BA0000022000F0BDBA0000E0
:101C5000042000F0B9BA0000082000F0B5BA000076
:101C6000EFF3108072B600BFFEE70000014690F867
:101C70002100022813D10868D1E90FC3026822F0BD
:101C80000E020260026822F001020260012000FAE6
:101C900003F2CCF8042081F82100002002E00420A7
:101CA00088630120002281F82020704780B590F8D9
:101CB0002110022923D10268116821F00E01116060
:101CC0002F211368C4F202018A4240F20401C4F2D7
:101CD000020123F00103136015DD3023C4F2020377
:101CE0009A421CD04423C4F202039A421AD05823C9
:101CF000C4F202039A421AD14FF480331FE0042148
:101D00008163012080BD0823C4F202039A420CD0F3
:101D10001C23C4F202039A4209D110230FE04FF4AE
:101D200080730CE04FF4805309E0012307E001F1D8
:101D3000680C4FF08073624508BF4FF480130B604E
:101D4000012180F82110426B002180F820100AB197
:101D500090470021084680BD10B5D0E90FCE01683C
:101D6000DCF800300A6823FA0EF35C0724D512F081
:101D7000040421D00A68920603D40A6822F00402FF
:101D80000A602F22C4F20202914240F20402C4F21D
:101D900002024FDD3023C4F20203994262D0442391
:101DA000C4F20203994260D05823C4F2020399425C
:101DB00060D14FF4802365E09C0727D512F0020420
:101DC00024D00A68920606D40A6822F00A020A6041
:101DD000012280F821202F22C4F20202914240F217
:101DE0000402C4F2020231DD3023C4F2020399423C
:101DF0004DD04423C4F2020399424BD05823C4F27D
:101E0000020399424BD14FF4003350E01B073DD5FC
:101E100012F0080208BF10BD0A6822F00E020A6024
:101E2000012101FA0EF2CCF80420816380F8211020
:101E3000016B3EE00823C4F20203994218D01C2330
:101E4000C4F20203994215D140231BE00823C4F2D7
:101E50000203994221D01C23C4F2020399421ED1ED
:101E6000202324E04FF480630CE04FF4804309E02A
:101E7000042307E002F168044FF08063A14208BF29
:101E80004FF480031360C16A01B1884710BD4FF45D
:101E900000730CE04FF4005309E0022307E002F165
:101EA00068044FF00073A14208BF4FF400131360A1
:101EB000816A0022002980F8202018BF884710BDC1
:101EC000014600284FF0010008BF70472DE9F0439C
:101ED000D1F800C04FF6F873CBF6FD734CF6CD4247
:101EE0006344CCF6CC42A3FB02236FF0030707EA5E
:101EF00093030027C4F2020701F10C09C1E90F7333
:101F00000223D1E9012E99E87002D1F81C8081F8F2
:101F10002130DCF8003043F6F077BB431A4342EA45
:101F20000E0222432A43324342EA090242EA0802ED
:101F3000CCF8002000228A6381F8210081F820205B
:101F40000020BDE8F0437047F0B590F820C0BCF128
:101F5000010F2FD04FF0010E80F820E090F821C043
:101F6000BCF1010F23D14FF0020C80F821C04FF0DB
:101F7000000CC0F838C0D0E900C4C56AC66BDCF8F4
:101F80000070102C27F00107CCF80070006C0EFADE
:101F900000F070600846CCF8043004BF10460A46D2
:101FA000CCF80800CCF80C2035B10E200BE0002155
:101FB00080F820100220F0BDDCF8000020F00400C2
:101FC000CCF800000A20DCF800100843CCF8000030
:101FD000DCF8000040F00100CCF800000020F0BD6B
:101FE000B0B5044600F010FA054640F20C00C2F20B
:101FF00000000078611C18BF044400BF00F004FA20
:10200000401BA042FAD3B0BDB0B5B0F5005F17DAFF
:10201000013807282DD8DFE800F0052D2C3B2C2CAB
:102020002C4900BF40F28000C2F20000417821B18B
:10203000C1798A08490042718171FD218170B0BD6A
:10204000B0F5004F40D0B0F5804F57D0B0F5005FED
:102050000FD140F600040520C4F20104FFF7C0FFD1
:1020600004F500604FF4005100F0BAF9002800F0C8
:102070008780B0BD40F28000C2F20000417819B103
:10208000C1794A0842718171FF218170B0BD00BFE2
:1020900040F28000C2F20000417819B1C1794A08CB
:1020A0008271417101218170B0BD00BF40F280009A
:1020B000C2F20000417821B1C1798A0849008271D9
:1020C000417103218170B0BD40F600040520C4F2C7
:1020D0000104FFF785FF04F500604FF4004100F0B4
:1020E0007FF9002818BFB0BD2046802100F07EF99E
:1020F00020468021BDE8B04000F072B940F60004EF
:102100000520C4F20104FFF76BFF04F500604FF4F3
:10211000804100F065F90028ABD12046402100F055
:1021200065F92046402100F05BF900283ED040F2DE
:102130008005C2F20005012068702046402101227E
:1021400000F05CF940F29C211420C2F20001E87119
:1021500041F214400968A5F805004FF01160002213
:10216000C5F80E008A63CA634FF41162C5F80A20ED
:102170004A630A64C5F81220C5F81600B0BD00BF56
:102180002046202100F032F92046202100F028F9D5
:1021900080B140F2C414C2F200042046002101F0D4
:1021A0008DFA206814214163B0BD00BFBDE8B04086
:1021B00002F0A6BF40F2C410C2F200000021BDE848
:1021C000B04001F0DDBA000080B540F21441C4F225
:1021D00001010A68024208BF80BD0860FFF714FFD2
:1021E00080BD00002DE9F04F82B041F20042C4F200
:1021F00001020E680423904208BF0323002E0093BF
:1022000000F0EA8040F2004C4FF6FF7E0022C4F25C
:10221000010C0124C1F2100E4FF0000A4FF000092A
:1022200041E0012502F00C040F27A7402BEA070725
:1022300005FA04F43C4343F826404E6840F20C454E
:10224000F302DCF8083054BF23EA080343EA08032A
:10225000C4F20105CCF808302B68B40254BF23EA5D
:10226000080343EA08032B60B403DCF8043054BFCE
:1022700023EA080343EA0803F403CCF80430DCF84B
:1022800000304FF0010454BF23EA080343EA080377
:10229000CCF800300E680AF1010A36FA0AF302F1AE
:1022A000040200F0998004FA0AFB16EA0B08F1D048
:1022B0004B68734510DC122B50D8DFE803F0330A6B
:1022C00041454F4F4F4F4F4F4F4F4F4F4F4F4F483D
:1022D0004C00D1F80C9041E04FF6FF75C1F221059A
:1022E000AB420FDC0025C1F21105AB421AD000252C
:1022F000C1F21205AB4215D00025C1F22105AB4257
:1023000010D02BE00025C1F22205AB420AD00025F7
:10231000C1F23105AB4205D00025C1F23205AB4216
:102320001CD100BF8B6843B1012B14BFC0F814B09F
:10233000C0F810B04FF0080910E04FF004090DE0AC
:10234000CB6803F1080909E04FF0000906E0CB680B
:1023500003F1040902E0CB6803F10C0913460546BA
:10236000B8F5807F24BF203B04352E680F279F409F
:10237000BE4309FA03F333432B60CB79DB067FF5C9
:1023800089AF41F21804C4F2020423684FEA9A06A6
:1023900043F001032360236840F6000403F00103C7
:1023A0000193019BACF57E7353F826B0C4F201048F
:1023B000A0420FD040F60044C4F20104A0423FF412
:1023C00030AF41F20004C4F20104009DA04208BFF6
:1023D000022527E7002525E702B0BDE8F08F0000C1
:1023E0008068084018BF012070470000C26802EAF8
:1023F0000103914341EA034101617047002A08BF8C
:10240000090401617047000040F2BC40C2F20000C4
:102410000068704740F20C0040F2BC41C2F200007C
:10242000C2F2000100780A6810440860704700009A
:1024300080B542F20000C4F20200016841F01001D0
:102440000160032000F08EF80A2000F005F800F08B
:102450002BF8002080BD0000B0B540F20C02C2F2A3
:10246000000240F208011278C2F200014FF47A73C0
:102470000968B3FBF2F20446B1FBF2F1084600F042
:102480001FFB0F2C4FF001050CD858B94FF0FF304F
:1024900021460022002500F039F840F21000C2F277
:1024A000000004602846B0BD82B041F21800C4F2BA
:1024B00002000168022241F001010160016801F09F
:1024C000010101910199416841F0805141604068EA
:1024D00000F08050009000980420C4F201000168D0
:1024E00062F31A61016002B070470000002848BF23
:1024F000704700F01F01012202FA01F14EF20012B2
:102500004009CEF2000242F82010704710B54EF696
:102510000C5CCEF2000CDCF80030C3F3022E8EF01F
:102520000704042C28BF0424BEF103034FF0FF3E30
:102530000EFA04F438BF0023A14399400EFA03F3C6
:102540009A4300F00F03043B1143634409010C3329
:1025500000F16042B0F1FF3FC8BF02F5644319705B
:1025600010BD00004EF60C51CEF200010A684FF685
:10257000FF031A4060F30A2242F0806040F0FD70D1
:10258000086070472DE9F04381B0002800F0858095
:1025900042F20008C4F202080446D8F800000D46D2
:1025A00000F0070088420CD2D8F8000020F00700A5
:1025B0002843C8F80000D8F8000000F00700A8423F
:1025C0006BD1206841F204098107C4F2020917D5D2
:1025D000410705D5D9F8001041F4E061C9F80010B1
:1025E000010705D5D9F8001041F46051C9F8001071
:1025F000D9F80010A26821F0F0011143C9F80010C9
:10260000C00741D1D8F8000000F00700A8420CD95B
:10261000D8F8000020F007002843C8F80000D8F8D8
:10262000000000F00700A84237D12068410707D515
:10263000D9F80010E26821F4E0611143C9F80010F4
:10264000000708D5D9F80000216920F4605040EA5D
:10265000C100C9F80000D9F8002002F00C000828D9
:1026600041F20020C0F27A004ED147F2FE63C2F37D
:102670008341C0F60003595CD20339D440F6001000
:10268000C0F23D0048433FE06068022809D00128BD
:1026900029D159F8041C890307D4012001B0BDE8F1
:1026A000F08359F8041C8901F7D5D9F8001021F0FE
:1026B00003010843C9F80000FFF7A6FE064641F2F1
:1026C000883700BFD9F80000616800F00C00B0EB5B
:1026D000810F97D0FFF798FE801BB842F2D90320F4
:1026E00001B0BDE8F08359F8041C8907D5D5DCE7B3
:1026F000D9F8002047F2FC63C2F34042C0F6000361
:102700009A5C4843B0FBF2F0D9F8001046F6CC6270
:10271000C1F30311C0F60002515C40F2080220FA36
:1027200001F140F21000C2F200000068C2F20002A3
:102730001160FFF791FE002001B0BDE8F0830000BA
:1027400040F2080041F20401C2F20000C4F20201AA
:102750000068096846F6DC62C1F30221C0F6000297
:10276000515CC8407047000040F2080041F204018B
:10277000C2F20000C4F202010068096846F6DC6299
:10278000C1F3C221C0F60002515CC840704700008E
:102790002DE9F04182B0002800F0D780044600788F
:1027A00041F20006C007C4F2020644D0706800F08F
:1027B0000C00042817D0706800F00C00082802D123
:1027C0007068C0030FD465682DB1B5F5A02F10D087
:1027D000B5F5803F11D0306820F48030306030682B
:1027E00020F480200CE03068800324D5606810BBA2
:1027F000ABE0306840F480203060306840F48030D6
:102800003060FFF701FE002D054611D030688003CF
:1028100011D4FFF7F9FD401B6428F7D916E100BF7A
:10282000FFF7F2FD401B64284FF0030000F28A809E
:1028300030688003F4D42078800718D5706810F0D1
:102840000C0F07D0706800F00C00082827D17068C2
:10285000C00324D43068800702D52069012874D1D0
:102860003068616920F0F80040EAC10030602078EB
:1028700000074FD5A06940B30020C4F242200121D7
:10288000C0F88014FFF7C0FD054600BF706A8007DE
:102890002DD4FFF7B9FD401B0228F7D9D6E02069F7
:1028A000002840F20000C4F2422000F0A68001217E
:1028B0000160FFF7A9FD054630688007D0D4FFF717
:1028C000A3FD401B0228F7D9C0E00020C4F242203B
:1028D0000021C0F88014FFF797FD0546706A800755
:1028E00018D5FFF791FD401B0228F7D9AEE040F262
:1028F0000800C2F20000006844F6D351C1F2620140
:10290000A0FB0101480A019000BF0198411E002868
:102910000191F9D1207840071BD4E5698DB1706829
:1029200000F00C00082846D1012D0ED07068216AF5
:1029300000F480328A4208D1616A00F47010884243
:1029400003D1002002B0BDE8F081012002B0BDE853
:10295000F081F06910F0805808D1F06940F08050A3
:10296000F061F06900F080500090009847F2000795
:10297000C4F200073868C0050FD4386840F480708E
:102980003860FFF741FD05463868C00505D4FFF7FC
:102990003BFD401B6428F7D958E0E5681DB1052DC3
:1029A0003CD0012D3ED0306A20F001003062306A08
:1029B00020F0040039E00027C4F2422700203866E6
:1029C000FFF722FD022D05460CD100BF30688001C3
:1029D00054D5FFF719FD401B02284FF00300F5D92D
:1029E000B0E700BF30688001ABD5FFF70DFD401B9D
:1029F00002284FF00300F5D9A4E700210160FFF79A
:102A000003FD0546306880077FF531AFFFF7FCFC1A
:102A1000401B02284FF00300F4D993E7306A40F0DE
:102A200004003062306A40F001003062FFF7ECFCD5
:102A3000002D054641F2883714D000BF306A800768
:102A400013D4FFF7E1FC401BB842F7D9032002B0D2
:102A5000BDE8F081FFF7D8FC401BB8424FF00300FF
:102A60003FF670AF306A8007F4D4B8F1000F7FF4FE
:102A700054AFF06920F08050F0614EE7206AB0F565
:102A8000803F05D17168A26821F400311143716063
:102A90007168626A21F47411104308437060012068
:102AA0003866FFF7B1FC0446306880013FF549AF56
:102AB000FFF7AAFC001B02284FF00300F4D941E7FE
:102AC000411E0020B0EB116F1CBF012070474EF279
:102AD0001002CEF2000251604EF62351CEF20001F8
:102AE000F0230B7007219060116070477047000061
:102AF00070470000B0B590F83C20012A04BF0220C6
:102B0000B0BD01F108053CCDD1E900CE23F47C53E2
:102B100022F470521A432EF4F0431A432CF4E0438B
:102B20001A4324F4C0431A432A43C96922F4804259
:102B3000036811435964002180F83C100846B0BD79
:102B400010B590F83C20012A4FF0020231D0012349
:102B500080F83C3080F83D200268D2F804E0D2F8DA
:102B600008C00C682EF07003234340F2FF74C4F2D7
:102B70000004A242536005DCB2F1804F0ED040F257
:102B8000004307E042F60043C4F201039A4205D035
:102B900040F60003C4F200039A4204D149682CF0C5
:102BA0008003194391600121002280F83D1080F8D4
:102BB0003C20104610BD0000002804BF01207047D3
:102BC00010B5044690F83D0028B9002084F83C0078
:102BD000204600F05DF8022084F83D00206840F2B5
:102BE000FF730268C4F2000342F6004C9842C4F23C
:102BF000010C05DCB0F1804F0AD040F2004103E047
:102C0000604505D040F60001C4F20001884203D1BE
:102C1000A16822F070020A43984205DCB0F1804FAF
:102C20000AD040F2004103E0604505D040F60001C3
:102C3000C4F20001884203D1216922F440720A43A0
:102C4000A36922F08001D4F804E0E26819436045EA
:102C50000160C262C0F828E002D16169CCF830108E
:102C600001214161002084F8461084F83E1084F868
:102C70003F1084F8401084F8411084F8421084F822
:102C8000431084F8441084F8451084F83D1010BDBA
:102C900082B0006840F60001C4F20001884215D0FD
:102CA00042F60041C4F2010188421CD141F21800F1
:102CB000C4F20200016841F400610160006800F4A0
:102CC00000600190019802B0704700BF41F2180007
:102CD000C4F20200416841F004014160406800F024
:102CE00004000090009802B07047000090F83D107A
:102CF00001291CBF01207047022180F83D100068A7
:102D000040F2FF71C4F20001884205DCB0F1804F4F
:102D10000ED040F2004107E042F60041C4F201014A
:102D2000884205D040F60001C4F20001884206D175
:102D3000816801F00701062904BF0020704701687F
:102D400041F00101016000207047000090F83D1043
:102D500001291CBF01207047022180F83D10006846
:102D600040F2FF72C168C4F20002904241F00101DA
:102D7000C16005DCB0F1804F0ED040F2004107E0A9
:102D800042F60041C4F20101884205D040F600013C
:102D9000C4F20001884206D1816801F007010629CA
:102DA00004BF00207047016841F00101016000206C
:102DB0007047000080B590F83C20012A4FF00202D5
:102DC00000F0C280012380F83C3080F83D20D0F82C
:102DD00000C04FF67772DCF8083023EA0202CCF824
:102DE00008200B684F2B28DC1F2B43DD202B44D001
:102DF000302B42D0402B40F0A980D1F804E0C968C4
:102E0000DCF82030DCF8202022F00102CCF8202071
:102E1000DCF8182022F0F00242EA011123F00A0245
:102E200042EA0E02CCF81810CCF82020DCF808108A
:102E300041F0470121F030017DE06F2B25DDB3F536
:102E4000005F46D0B3F5805F77D0702B7ED1D1E99B
:102E500001E3C968DCF8082043EA0E0322F47F424C
:102E600043EA01211143CCF80810DCF8081041F0C6
:102E7000770160E00BB1102B68D1DCF8081021F06D
:102E80007001194341F0070155E0502B34D0602BFD
:102E90005CD1D1F804E0C968DCF82030DCF82020EF
:102EA00022F01002CCF82020DCF8182022F4704226
:102EB00042EA013123F0A00242EA0E12CCF81810C7
:102EC000CCF82020DCF8081041F0670121F0100157
:102ED00031E0D1E901E3C968DCF8082043EA0E03D8
:102EE00022F47F4243EA01211143CCF80810DCF8B8
:102EF000081041F480411EE0D1F804E0C968DCF814
:102F00002030DCF8202022F00102CCF82020DCF870
:102F1000182022F0F00242EA011123F00A0242EAEC
:102F20000E02CCF81810CCF82020DCF8081041F084
:102F3000570121F02001CCF808100022012180F86F
:102F40003D10002180F83C10104680BD0122F5E7BD
:102F5000002804BF012070472DE9F04F81B00446DE
:102F600090F83D000D4628B9002084F83C0020462A
:102F700000F08AF8022084F83D00206844F207023D
:102F8000816840F2FF73914381600268C4F20003DC
:102F900042F6004C9842C4F2010C05DCB0F1804FBF
:102FA0000AD040F2004103E0604505D040F6000140
:102FB000C4F20001884203D1A16822F070020A43E2
:102FC000984205DCB0F1804F0AD040F2004103E0A6
:102FD000604505D040F60001C4F20001884203D1EB
:102FE000216922F440720A43A36922F08001D4F8D7
:102FF00004E0E268194360450160C262C0F828E05D
:1030000002D16169CCF830104FF00109C0F814907A
:103010008268D0F818E0D0F820C0D5E90038D5E9AA
:10302000027B43EA020AAB694FF6FF712EEA010EFA
:1030300047EA03234FF6FC47BB43D5E907724BEA47
:103040000E012E69194341EA072141EA061141EABE
:1030500002312CF022026B6942EA080242EA0312B2
:10306000C0F808A08161026284F8469084F83E901E
:1030700084F83F9084F8429084F8439084F83D901F
:10308000002001B0BDE8F08F70B586B0006840F256
:103090000042C4F20002002190420591CDE90311E3
:1030A00002913DD0B0F1804F78D141F21800C4F2C6
:1030B0000200416840F2001541F0010141604168A1
:1030C000002401F00101019101990168C0F200752D
:1030D00041F004010160016801F0040101910199CE
:1030E000016841F008010160006802A900F00800D1
:1030F000019001984FF40040029040F60000C4F2A5
:103100000100CDE90344FFF76DF80820CDE9020482
:103110004FF2FF30CFF6FF0000F510661C2423E0CD
:1031200041F21800C4F2020042684FF2FF3642F04A
:10313000020242604268CFF6FF0602F002020192EC
:10314000019A02681D2442F008020260006800F043
:103150000800019001983020CDE9020140F20010F2
:10316000C0F2007000F5E06540F60000C4F2010016
:103170000021049100F5806002A9FFF733F80420D4
:10318000C4F2010001680022314029430160204659
:103190000021FFF7BBF92046FFF7A8F906B070BD84
:1031A00080B590F83E2090F83F3090F842E090F8DB
:1031B00043C0042909D099B9012A4FF0010208BF80
:1031C000BEF1010F2BD0104680BD012B4FF0010244
:1031D00008BFBCF1010FF6D1022280F83F2012E0B7
:1031E000012A4FF0010208BF012BECD1BEF1010F03
:1031F000E9D1BCF1010FE6D1022280F83E2080F82F
:103200003F2080F8422080F8432004290ED081B965
:1032100001684FF0010C20316FF0010317E002222A
:1032200080F83E2080F842200429F0D10168203146
:1032300009E0016851F8202F22F001020A600A68B3
:1032400042F001020A604FF0100C6FF010030A68A0
:103250001A400A600A6842EA0C020A60006800220A
:10326000016841F001010160104680BD7047000017
:1032700010B5044600680169890744BFC1685FEA68
:10328000817138D420680169490744BFC1685FEA89
:1032900041713CD420680169090744BFC1685FEAF5
:1032A000017141D420680169C90644BFC1685FEA61
:1032B000C16145D420680169C9071CBFC1685FEAC4
:1032C000C1714AD120680169090644BFC1685FEA3B
:1032D000016149D420680169490644BFC1685FEAB9
:1032E000416148D420680169890644BFC1685FEA2A
:1032F000816147D410BD6FF0020101610121217786
:103300008069800745D02046FFF7B0FF47E06FF0A7
:103310000401016102212177806910F4407F41D0CE
:103320002046FFF7A3FF43E06FF00801016104218D
:103330002177C06980073ED02046FFF797FF40E025
:103340006FF01001016108212177C06910F4407FFE
:103350003AD02046FFF78AFF3CE06FF0010101619F
:10336000204600F05FFAADE76FF080010161204672
:10337000FFF7BCFBAEE76FF040010161204600F0B3
:1033800053FAAFE76FF0200101612046FFF7B0FB71
:1033900010BD204600F022F8204600F08DF90020F4
:1033A00020776FE7204600F019F8204600F084F9F6
:1033B000002020776EE7204600F010F8204600F04D
:1033C0007BF9002020776DE7204600F007F82046C3
:1033D00000F072F9002020776CE7000070470000D1
:1033E000F0B590F83C30012B04BF0220F0BD4FEA4D
:1033F000B2020123032A80F83C3000F2E980DFE8C2
:1034000002F0023A77B3036842F600471E6A1A6A6E
:10341000C4F2010722F001021A621A465C6852F8EF
:1034200018CF8D6826F00206BB4245EA060E06D18B
:10343000CD682EF00C0625F0040545EA060E0E6850
:10344000BB4205D1D1E9055724F440742C433C43D9
:103450002CF0730737435C609F614F6809695F63B5
:10346000C3F820E09F6947F008079F619F6927F034
:1034700004079F61A8E0036842F600451C6A1A6AC7
:10348000C4F2010522F010021A621A46D3F804E0D1
:1034900052F818CF8E6824F02004AB4244EA061498
:1034A00007D1CE686FF0400724F0C00407EA061683
:1034B00034430E68AB4207D1D1E905572EF4406E74
:1034C0004EEA850545EA870E2CF4E64747EA0627CB
:1034D000C3F804E09F614F6809699F631C629F699C
:1034E00047F400679F619F6927F480679F616AE0E6
:1034F000036842F600451C6A1A6AC4F2010522F408
:1035000080721A621A46D3F804E052F81CCF8E6813
:1035100024F40074AB4244EA062407D1CE6840F29A
:10352000FF47360224F44064BE4334430E68AB4286
:1035300007D1D1E905572EF4405E4EEA051545EA5C
:10354000071E2CF073073743C3F804E0DF614F68B0
:103550000969DF631C62DF6947F00807DF61DF6923
:1035600027F00407DF612FE0036842F60047D3F835
:1035700020C01A6AC4F2010722F480521A621A4665
:103580005C6852F81C5FD1F800E08E68BB4204D141
:103590004F6924F4804444EA87142CF4005747EA26
:1035A000063725F4E64646EA0E265C60DE614E6884
:1035B00009691E641F62DF6947F40067DF61DF6924
:1035C00027F48067DF610902136819430023116043
:1035D000002180F83C101846F0BD0000002804BF10
:1035E0000120704710B5044690F83D0028B900202E
:1035F00084F83C00204600F05DF8022084F83D008D
:10360000206840F2FF730268C4F2000342F6004CE7
:103610009842C4F2010C05DCB0F1804F0AD040F2B0
:10362000004103E0604505D040F60001C4F200010E
:10363000884203D1A16822F070020A43984205DC57
:10364000B0F1804F0AD040F2004103E0604505D060
:1036500040F60001C4F20001884203D1216922F43E
:1036600040720A43A36922F08001D4F804E0E268C2
:10367000194360450160C262C0F828E002D1616967
:10368000CCF8301001214161002084F8461084F804
:103690003E1084F83F1084F8401084F8411084F8FC
:1036A000421084F8431084F8441084F8451084F8DC
:1036B0003D1010BD704700007047000041B108295F
:1036C00009D0042914BF00F1410200F13F0204E0D7
:1036D00000F13E0201E000F140021278012A1CBF15
:1036E00001207047022241B1082909D0042914BFE2
:1036F00080F8412080F83F2004E080F83E2001E07F
:1037000080F84020006801F01F010122036A8A400E
:1037100023EA02010162036A42F64441C4F2010154
:103720001A43A1F144039842026203D10A6842F4A9
:1037300000420A6040F2FF71C4F20001884205DCD9
:10374000B0F1804F0ED040F2004107E042F6004158
:10375000C4F20101884205D040F60001C4F2000124
:10376000884206D1816801F00701062904BF0020C4
:103770007047016841F001010160002070470000BE
:1037800080B5026801F01F0C012303FA0CFE136AD6
:1037900042F6004C23EA0E031362C4F2010C136AD2
:1037A0006245136211D1DCF820C041F211131CEA0A
:1037B000030F0AD1D2F820C040F244431CEA030FA1
:1037C00003D1536C23F400435364D2F820C041F278
:1037D00011131CEA030F06D1D2F820C040F2444373
:1037E0001CEA030F12D0082916D0042909D0002999
:1037F0004FF0010114BF80F8411080F83E10002006
:1038000080BD012180F83F10002080BD136823F0A7
:10381000010313600829E8D1012180F8401000203D
:1038200080BD000070470000704700007047000036
:1038300070470000B0B582B0044600680168C368F4
:10384000426901F02F05202D03F0200505D125B197
:10385000204601F0E9FB02B0B0BD5FEA017C1EBF6B
:1038600002F0010E03F4907212EB0E0279D1226B7A
:10387000012A05D111F0100218BF13F0100235D142
:103880000A0622D513F080021FD094F84110212996
:103890002AD1A168B1F5805F03D12169002900F028
:1038A0003A81216A4A1C226209784160E18C01391F
:1038B0000A04E18418D1C16821F08001C160C168A7
:1038C00041F04001C16002B0B0BD49060CD513F013
:1038D000400109D0C16821F04001C160202084F876
:1038E0004100204600F06EFA02B0B0BD0021019107
:1038F000016801914168019101994069400638D4FD
:10390000A08DE18DE28D002A1CBF401A5FEA0041C4
:10391000EAD000BF216851E8031F226821F49071AA
:1039200042E80313002BF5D1216851E8051F2268F6
:1039300021F0010142E80513002BF5D1202184F884
:1039400042100021216300BF216851E8031F226853
:1039500021F0100142E80313002BF5D1022161632D
:103960004AE0C80718BF13F480704BD148074FD402
:1039700055E0E06B016849688AB2002AB4D0A38D93
:103980009A42B1D2E1858069202830D0206850E881
:10399000030F216820F4807041E80302002AF5D16A
:1039A000206850E8050F216820F0010041E8050279
:1039B000002AF5D1206850E8050F216820F040006A
:1039C00041E80502002AF5D1202084F842000020B9
:1039D000206300BF206850E8030F216820F010002A
:1039E00041E80302002AF5D1E06BFEF73FF902201F
:1039F0006063A08DE18D401A81B22046FFF716FF6B
:103A000002B0B0BD606C40F001006064480706D5AC
:103A1000BEF1000F03D0606C40F0020060648807C4
:103A200006D5BEF1000F03D0606C40F00400606466
:103A3000BCF1000F06D555EA0E0003D0606C40F0D3
:103A400008006064606C00283FF44EAF11F0200065
:103A500018BF002D02D0204601F0E6FA2068406928
:103A6000616C00F0400001F00801401847D000BF31
:103A7000206850E8030F216820F4907041E80302A9
:103A8000002AF5D1206850E8050F216820F00100D8
:103A900041E80502002AF5D1206B01280AD100BFB8
:103AA000206850E8030F216820F0100041E803026D
:103AB000002AF5D1202084F84200002020632068ED
:103AC0004069400622D500BF206850E8050F2168F4
:103AD00020F0400041E80502002AF5D1E06BA8B1D2
:103AE00044F62571C0F600014163FEF7DFF80028B7
:103AF0003FF4FAAEE06B416B884702B0B0BD2046A0
:103B0000FFF796FE0020606402B0B0BD2046FFF7CC
:103B10008FFE02B0B0BD216A31F8022B6FF35F2235
:103B200042602162C2E60000002804BF0120704705
:103B300010B5044690F8410028B9002084F84000F0
:103B4000204600F05FF8242084F841002068D4E982
:103B50000212C36823F40053C360036923F4405383
:103B60001A430261D4E904231143C268194341F2A4
:103B70000C639A431143C1604169A26921F4407109
:103B8000114343F60002C4F201029042416102D0A7
:103B9000FEF7D6FD01E0FEF7E7FD62681921484314
:103BA0009100B0FBF1F048F21F51C5F2EB11A0FB00
:103BB00001235A096FF0630302FB0300322303EB76
:103BC0000010A0FB0101F02303EA5113206803EB6E
:103BD0000212C1F3431111448160016921F4904143
:103BE0000161416921F02A014161C16841F400513C
:103BF000C16000202021606484F8411084F84210E4
:103C0000606310BDF0B585B040F600050446C4F20F
:103C10000105006805F5405100278842039701D04F
:103C200005B0F0BD41F21800C4F20200016801AE17
:103C300041F480410160016801F4804100910099E4
:103C4000016841F0040101600068314600F00400A1
:103C5000009000984FF40070019002200290032021
:103C600004902846FEF7BEFA4FF48060CDE90107C4
:103C7000284631460397FEF7B5FA40F280154420F6
:103C8000C2F20005C4F202001021802285E8830000
:103C90002846C5E90327C5E90577EF61FEF710F966
:103CA000002818BFFDF7DCFFA5636C6205B0F0BD0E
:103CB00090F84230202B1CBF0220704700294FF0A3
:103CC000010318BF002A01D118467047002303637F
:103CD000816222218285C285436480F84210016995
:103CE00021B10168CA6842F48072CA60006800238A
:103CF000416941F001014161C16841F02001C160A9
:103D00001846704780B5006843F60001C4F201010F
:103D1000884218BF80BD40F28000C2F20000014618
:103D200011F808CF037840F2B50E5A1C0270C2F2A7
:103D3000000E40F2E420C2F2000001220EF803C09F
:103D4000BDE88040FFF7B4BF70B5044690F841006D
:103D500020281CBF022070BD4FF0010089B3002A4B
:103D6000134608BF70BD4FF0000C21202162A384D0
:103D7000E384C4F844C084F841002268A06B44F690
:103D8000DD7E45F21D0544F63576C0F6000EC0F620
:103D90000005C0F600060432C0E90AE5C0E90C6C73
:103DA000FEF7D2F820686FF040010160206850E80B
:103DB000050F216840F0800041E80502002AF5D196
:103DC000002070BD006843F60001C4F20101884282
:103DD00018BF704740F27D10C2F200000021017050
:103DE0007047000070470000FEE7000010B540F685
:103DF0000044C4F2010420464FF400610022FEF7A3
:103E0000FDFA20464FF480610122FEF7F7FA2046C2
:103E10004FF400610122BDE81040FEF7EFBA000048
:103E2000B0B540F60044C4F201040546C20920467C
:103E30004FF40061FEF7E2FA20464FF48061012260
:103E4000FEF7DCFA20464FF480610022FEF7D6FA36
:103E5000C5F3801220464FF40061FEF7CFFA2046EA
:103E60004FF480610122FEF7C9FA20464FF48061C9
:103E70000022FEF7C3FAC5F3401220464FF400615A
:103E8000FEF7BCFA20464FF480610122FEF7B6FA35
:103E900020464FF480610022FEF7B0FAC5F300120D
:103EA00020464FF40061FEF7A9FA20464FF48061E6
:103EB0000122FEF7A3FA20464FF480610022FEF7AC
:103EC0009DFAC5F3C00220464FF40061FEF796FA52
:103ED00020464FF480610122FEF790FA20464FF40D
:103EE00080610022FEF78AFAC5F3800220464FF473
:103EF0000061FEF783FA20464FF480610122FEF74D
:103F00007DFA20464FF480610022FEF777FAC5F370
:103F1000400220464FF40061FEF770FA20464FF44D
:103F200080610122FEF76AFA20464FF48061002288
:103F3000FEF764FA05F0010220464FF40061FEF737
:103F40005DFA20464FF480610122FEF757FA2046C1
:103F50004FF480610022FEF751FA20464FF40061D1
:103F60000122BDE8B040FEF749BA000010B540F6A6
:103F70000044C4F2010420464FF400610122FEF720
:103F80003DFA20464FF480610122FEF737FA2046C1
:103F90004FF400610022FEF731FA20464FF48061B1
:103FA0000022BDE81040FEF729BA000010B540F627
:103FB0000044C4F2010420464FF400610022FEF7E1
:103FC0001DFA20464FF480610122FEF717FA2046C1
:103FD0004FF400610122BDE81040FEF70FBA000067
:103FE000B0B540F60044C4F2010420464FF400612D
:103FF0000122FEF703FA20464FF480610122FEF70A
:10400000FDF920464FF40061FEF7EAF90546002865
:1040100020464FF480614FF0000218BF0125FEF7E3
:10402000EDF92846B0BD000081B041F21400C4F2A1
:104030000200016841F001010160006800F0010028
:104040000090009801B070472DE9F04786B04FF01E
:10405000000841F21800CDF81480C4F20200016893
:1040600040F6000541F0100101600168C4F201054D
:1040700001F01001019101990168012241F0200134
:10408000016001684FF0F00901F0200101910199F0
:1040900001684FF0010A41F004010160016801F07C
:1040A000040101910199016841F008010160006873
:1040B000F02100F00800019001982846FEF79EF9D3
:1040C00005F5806420464FF47C410122FEF796F905
:1040D0004FF46040002702AE0290C1F2210705F5BF
:1040E00000603146CDE9037AFEF77CF80F2002A983
:1040F00081E8810128463146FEF774F802272846F8
:104100003146CDE9029ACDF810800597FEF76AF89E
:104110004FF44060CDE9020A032005902046314665
:10412000CDF810A0FEF75EF84FF47040CDE9020A1A
:1041300020463146CDE90487FEF754F806200021D9
:104140000022FEF7E3F90620FEF7D0F90720002150
:104150000022FEF7DBF90720FEF7C8F9082000214E
:104160000022FEF7D3F90820FEF7C0F9092000214C
:104170000022FEF7CBF90920FEF7B8F928200D211F
:104180000022FEF7C3F92820FEF7B0F906B0BDE81B
:10419000F087000070B59CB040F60004C4F2010442
:1041A00040F2C410002104F51052C2F2000047236F
:1041B00040F2F3161691CDE914111191CDE90F11CA
:1041C000CDE90D11CDE90B11CDE90911CDE90711AB
:1041D000CDE90511CDE90311CDE90111C0E90023B5
:1041E000C0E90216C0E904118161FEF7E5FC002870
:1041F00018BFFDF735FD4FF48050139040F2C41006
:10420000C2F2000013A9FEF7D5FD002818BFFDF784
:1042100027FD40F2C410C2F20000FFF7DFF90028CA
:1042200018BFFDF71DFD40F2C4100025C2F20000CA
:1042300010A9CDE91055FEF783FC002818BFFDF743
:104240000FFD60200990FA20CDE90A0540F2C41064
:10425000C2F2000009A90022CDE90C55CDE90E55A6
:10426000FFF7BEF8002818BFFDF7FAFC40F2C415AE
:104270004FF40050C2F200050026069001A928461E
:104280000596CDE90366CDE901660896FEF732FC96
:10429000002818BFFDF7E4FC286840F60001C4F2CE
:1042A00000018842CDE91966189615D042F6004102
:1042B000C4F20101884228D141F21800C4F2020080
:1042C000016841F004010160006800F004001790EB
:1042D00017984FF4807010E041F21800C4F2020009
:1042E000016804F5806441F008010160006800F095
:1042F0000800179017984FF47070189002201990CA
:104300001B9018A92046FDF76DFF1CB070BD000082
:1043100080B58CB040F20C200021C2F200004FF0BA
:104320008042C0E9002103224FF6FF73CDE903214B
:104330000122CDE90011C0E9021301618161CDE9DB
:104340000521CDE90711CDE909210B9103A9FEF75C
:10435000FFFD002818BFFDF783FC40F20C20C2F2DD
:1043600000006946FEF7ECFB002818BFFDF778FC5B
:104370000CB080BD80B58CB040F2542040F20042B9
:104380000021C2F20000C4F20002C0E900210322B1
:104390004FF6FF73CDE903210122CDE90011C0E9F9
:1043A000021301618161CDE90521CDE90711CDE954
:1043B00009210B9103A9FEF7CBFD002818BFFDF7DB
:1043C0004FFC40F25420C2F200006946FEF7B8FBF1
:1043D000002818BFFDF744FC0CB080BDB0B594B008
:1043E00040F6000540F29C20C4F200050021C2F214
:1043F000000040F60F620E91CDE90C110991CDE954
:104400000711CDE90511CDE90311CDE90111C0E98D
:104410000051C0E9021201618161FEF7CDFB002865
:1044200018BFFDF71DFC4FF480500B9040F29C200C
:10443000C2F200000BA9FEF7BDFC002818BFFDF773
:104440000FFC40F29C20C2F20000FFF7C7F80028E2
:1044500018BFFDF705FC40F29C200024C2F20000CA
:1044600008A9CDE90844FEF76BFB002818BFFDF74B
:10447000F7FB6020CDE9010440F29C20C2F200006D
:1044800001A9002203940594FEF7AAFF002818BF93
:10449000FDF7E6FB40F29C20C2F2000001A90422D5
:1044A000FEF79EFF002818BFFDF7DAFB40F29C20C4
:1044B000C2F2000001A90822FEF792FF002818BFEF
:1044C000FDF7CEFB40F29C24C2F2000401A9204675
:1044D0000C22FEF785FF002818BFFDF7C1FB2068FE
:1044E0000021A84212911191109119D042F6004179
:1044F000C4F2010188422BD141F21800C4F202003B
:10450000016841F004010160006800F004000F90B0
:104510000F984FF48070109005F5803012E000BFC6
:1045200041F21800C4F20200016841F00801016084
:10453000006800F008000F900F984FF47070109012
:1045400005F5823002211191139110A9FDF74AFE61
:1045500014B0B0BD80B540F2E42043F60001C2F2D1
:104560000000C4F2010100234FF00C0C4FF416526E
:1045700080E80E00C0E90333C0E905C3C361FFF75B
:10458000D3FA002808BF80BDBDE88040FDF768BBB6
:10459000FEE70000FEE7000070B50024A4F150061D
:1045A000FFF7E4FC7820FFF73BFCFFF719FD002044
:1045B0000025FFF735FCFFF713FDF0B2FFF730FCE5
:1045C000FFF70EFDFFF7F2FCFFF7D0FC7820FFF7B6
:1045D00027FCFFF705FD0020FFF722FCFFF700FD99
:1045E0000020FFF71DFCFFF7FBFCFFF7DFFCFFF7E8
:1045F000BDFC7820FFF714FCFFF7F2FC0020FFF76A
:104600000FFCFFF7EDFC1020FFF70AFCFFF7E8FCBA
:10461000FFF7CCFCFFF7AAFC7820FFF701FCFFF7BF
:10462000DFFC4020FFF7FCFBFFF7DAFC0020FFF780
:10463000F7FBFFF7D5FCFFF7B9FC681C45B2B5F1F5
:10464000FF3FE7DCE0B20134072828BF70BDA5E7D3
:1046500080B5FFF7CBFB4FF44870FDF7C1FCFFF7C7
:1046600085FC7820FFF7DCFBFFF7BAFC0020FFF7A2
:10467000D7FBFFF7B5FCAE20FFF7D2FBFFF7B0FC8E
:10468000FFF794FCFFF772FC7820FFF7C9FBFFF7F8
:10469000A7FC0020FFF7C4FBFFF7A2FC0020FFF7F8
:1046A000BFFBFFF79DFCFFF781FCFFF75FFC782065
:1046B000FFF7B6FBFFF794FC0020FFF7B1FBFFF715
:1046C0008FFC1020FFF7ACFBFFF78AFCFFF76EFCB6
:1046D000FFF74CFC7820FFF7A3FBFFF781FC0020DD
:1046E000FFF79EFBFFF77CFC4020FFF799FBFFF7ED
:1046F00077FCFFF75BFCFFF739FC7820FFF790FBB6
:10470000FFF76EFC0020FFF78BFBFFF769FCB02082
:10471000FFF786FBFFF764FCFFF748FCFFF726FC7A
:104720007820FFF77DFBFFF75BFC0020FFF778FBAD
:10473000FFF756FC8120FFF773FBFFF751FCFFF7F3
:1047400035FCFFF713FC7820FFF76AFBFFF748FC06
:104750000020FFF765FBFFF743FCFF20FFF760FB3E
:10476000FFF73EFCFFF722FCFFF700FC7820FFF785
:1047700057FBFFF735FC0020FFF752FBFFF730FC3B
:10478000A120FFF74DFBFFF72BFCFFF70FFCFFF716
:10479000EDFB7820FFF744FBFFF722FC0020FFF73A
:1047A0003FFBFFF71DFCA620FFF73AFBFFF718FCC5
:1047B000FFF7FCFBFFF7DAFB7820FFF731FBFFF791
:1047C0000FFC0020FFF72CFBFFF70AFCA820FFF7E7
:1047D00027FBFFF705FCFFF7E9FBFFF7C7FB782096
:1047E000FFF71EFBFFF7FCFB0020FFF719FBFFF7AD
:1047F000F7FB3F20FFF714FBFFF7F2FBFFF7D6FBB9
:10480000FFF7B4FB7820FFF70BFBFFF7E9FB002075
:10481000FFF706FBFFF7E4FBC820FFF701FBFFF7FC
:10482000DFFBFFF7C3FBFFF7A1FB7820FFF7F8FAE8
:10483000FFF7D6FB0020FFF7F3FAFFF7D1FBD320F9
:10484000FFF7EEFAFFF7CCFBFFF7B0FBFFF78EFBAD
:104850007820FFF7E5FAFFF7C3FB0020FFF7E0FA47
:10486000FFF7BEFB0020FFF7DBFAFFF7B9FBFFF70E
:104870009DFBFFF77BFB7820FFF7D2FAFFF7B0FB39
:104880000020FFF7CDFAFFF7ABFBD520FFF7C8FA02
:10489000FFF7A6FBFFF78AFBFFF768FB7820FFF71F
:1048A000BFFAFFF79DFB0020FFF7BAFAFFF798FB6E
:1048B0008020FFF7B5FAFFF793FBFFF777FBFFF7D1
:1048C00055FB7820FFF7ACFAFFF78AFB0020FFF7D3
:1048D000A7FAFFF785FBD820FFF7A2FAFFF780FBC6
:1048E000FFF764FBFFF742FB7820FFF799FAFFF729
:1048F00077FB0020FFF794FAFFF772FB0520FFF724
:104900008FFAFFF76DFBFFF751FBFFF72FFB7820C6
:10491000FFF786FAFFF764FB0020FFF781FAFFF745
:104920005FFBD920FFF77CFAFFF75AFBFFF73EFB4E
:10493000FFF71CFB7820FFF773FAFFF751FB00200D
:10494000FFF76EFAFFF74CFBF120FFF769FAFFF76C
:1049500047FBFFF72BFBFFF709FB7820FFF760FA17
:10496000FFF73EFB0020FFF75BFAFFF739FBDA2089
:10497000FFF756FAFFF734FBFFF718FBFFF7F6FADD
:104980007820FFF74DFAFFF72BFB0020FFF748FADE
:10499000FFF726FB1220FFF743FAFFF721FBFFF793
:1049A00005FBFFF7E3FA7820FFF73AFAFFF718FB69
:1049B0000020FFF735FAFFF713FBDB20FFF730FA93
:1049C000FFF70EFBFFF7F2FAFFF7D0FA7820FFF7B8
:1049D00027FAFFF705FB0020FFF722FAFFF700FB9D
:1049E0003020FFF71DFAFFF7FBFAFFF7DFFAFFF7BA
:1049F000BDFA7820FFF714FAFFF7F2FA0020FFF76C
:104A00000FFAFFF7EDFA8D20FFF70AFAFFF7E8FA41
:104A1000FFF7CCFAFFF7AAFA7820FFF701FAFFF7C1
:104A2000DFFA0020FFF7FCF9FFF7DAFA1420FFF7AE
:104A3000F7F9FFF7D5FAFFF7B9FAFFF797FA7820F9
:104A4000FFF7EEF9FFF7CCFA0020FFF7E9F9FFF7DF
:104A5000C7FAAF20FFF7E4F9FFF7C2FABDE88040DC
:104A6000FFF7A4BAB0B50446A1F15005FFF77EFAEE
:104A70007820FFF7D5F9FFF7B3FA0020FFF7D0F958
:104A8000FFF7AEFAE8B2FFF7CBF9FFF7A9FAFFF7A5
:104A90008DFA200900F11005FFF768FA7820FFF77A
:104AA000BFF9FFF79DFA0020FFF7BAF9FFF798FA70
:104AB0002846FFF7B5F9FFF793FAFFF777FAFFF704
:104AC00055FA7820FFF7ACF9FFF78AFA0020FFF7D4
:104AD000A7F9FFF785FA04F00F00FFF7A1F9FFF738
:104AE0007FFABDE8B040FFF761BA00002DE9F0435E
:104AF00081B00D46044640B2002844BF0235002470
:104B0000E9B220461E46A2F12007FFF7ABFF102EA8
:104B1000F8B240F03D8147F20C120101C0F60002EC
:104B2000565C02EB0017FFF721FA7820FFF778F9BF
:104B3000FFF756FA4020FFF773F9FFF751FA3046B6
:104B4000FFF76EF9FFF74CFAFFF730FAFFF70EFAAE
:104B50007820FFF765F9FFF743FA4020FFF760F987
:104B6000FFF73EFA7878BE7897F8039097F80480BC
:104B7000FFF756F9FFF734FAFFF718FAFFF7F6F9DF
:104B80007820FFF74DF9FFF72BFA4020FFF748F99F
:104B9000FFF726FA3046FFF743F9FFF721FAFFF750
:104BA00005FAFFF7E3F97820FFF73AF9FFF718FA6B
:104BB0004020FFF735F9FFF713FA4846FFF730F9C1
:104BC000FFF70EFAFFF7F2F9FFF7D0F97820FFF7B9
:104BD00027F9FFF705FA4020FFF722F9FFF700FA5F
:104BE0004046FFF71DF9FFF7FBF9FFF7DFF97E7984
:104BF000FFF7BCF97820FFF713F9FFF7F1F9402030
:104C0000FFF70EF9FFF7ECF93046FFF709F9FFF768
:104C1000E7F9FFF7CBF9BE79FFF7A8F97820FFF79E
:104C2000FFF8FFF7DDF94020FFF7FAF8FFF7D8F9B2
:104C30003046FFF7F5F8FFF7D3F9FFF7B7F9FE793C
:104C4000FFF794F97820FFF7EBF8FFF7C9F9402058
:104C5000FFF7E6F8FFF7C4F93046FFF7E1F8FFF792
:104C6000BFF9FFF7A3F9681CC1B22046FFF7FAFEAF
:104C70003C7AFFF77BF97820FFF7D2F8FFF7B0F91D
:104C80004020FFF7CDF8FFF7ABF92046FFF7C8F853
:104C9000FFF7A6F9FFF78AF97C7AFFF767F9782022
:104CA000FFF7BEF8FFF79CF94020FFF7B9F8FFF7D0
:104CB00097F92046FFF7B4F8FFF792F9FFF776F976
:104CC000BC7AFFF753F97820FFF7AAF8FFF788F9C5
:104CD0004020FFF7A5F8FFF783F92046FFF7A0F87B
:104CE000FFF77EF9FFF762F9FC7AFFF73FF97820CA
:104CF000FFF796F8FFF774F94020FFF791F8FFF7F8
:104D00006FF92046FFF78CF8FFF76AF9FFF74EF9C5
:104D10003C7BFFF72BF97820FFF782F8FFF760F96B
:104D20004020FFF77DF8FFF75BF92046FFF778F8A2
:104D3000FFF756F9FFF73AF97C7BFFF717F9782070
:104D4000FFF76EF8FFF74CF94020FFF769F8FFF71F
:104D500047F92046FFF764F8FFF742F9FFF726F915
:104D6000BC7BFFF703F97820FFF75AF8FFF738F913
:104D70004020FFF755F8FFF733F92046FFF750F8CA
:104D8000FFF72EF9FFF712F907F10F006DE000BFF2
:104D900046F6E46100EB4000C0F6000111F8104057
:104DA00001EB4007FFF7E2F87820FFF739F8FFF74B
:104DB00017F94020FFF734F8FFF712F92046FFF704
:104DC0002FF8FFF70DF9FFF7F1F8FFF7CFF878208C
:104DD000FFF726F8FFF704F94020FFF721F8FFF767
:104DE000FFF87878BE78FD783C79FFF719F8FFF77F
:104DF000F7F8FFF7DBF8FFF7B9F87820FFF710F8BE
:104E0000FFF7EEF84020FFF70BF8FFF7E9F8304620
:104E1000FFF706F8FFF7E4F8FFF7C8F8FFF7A6F882
:104E20007820FEF7FDFFFFF7DBF84020FEF7F8FFE4
:104E3000FFF7D6F82846FEF7F3FFFFF7D1F8FFF7A4
:104E4000B5F8FFF793F87820FEF7EAFFFFF7C8F808
:104E50004020FEF7E5FFFFF7C3F82046FEF7E0FF2E
:104E6000FFF7BEF8FFF7A2F8781D0478FFF77EF889
:104E70007820FEF7D5FFFFF7B3F84020FEF7D0FF0C
:104E8000FFF7AEF82046FEF7CBFFFFF7A9F801B019
:104E9000BDE8F043FFF78AB82DE9F04115461278D6
:104EA000002A08BFBDE8F08198460E460746002458
:104EB000F8B2F1B2D2B24346FFF718FE0837F8B2A3
:104EC00001347828E0B288BF02362A5C88BF002708
:104ED000002AEDD1BDE8F081704700007047000066
:104EE00080B540F2B400C2F2000001780131CAB2CC
:104EF000092A017003D10021017000F029F9BDE8F1
:104F00008040FDF787BA00007047000040F20C2097
:104F1000C2F20000FEF7ACB940F25420C2F2000029
:104F2000FEF7A6B980B5406A0021C185C184FEF7AD
:104F30007FFC80BD80B5406A0168496990F84120D6
:104F4000212A12D111F080010FD00021C18400BFAD
:104F5000016851E8031F026821F0C00142E8031311
:104F6000002BF5D1202180F841100168496990F8A3
:104F70004220222A2BD111F0400128D00021C185E6
:104F8000016851E8031F026821F4907142E803139D
:104F9000002BF5D1016851E8051F026821F00101DD
:104FA00042E80513002BF5D1016B01290AD100BF9E
:104FB000016851E8031F026821F0100142E8031361
:104FC000002BF5D1202180F8421000210163416CB3
:104FD00041F010014164FEF72BFC80BD80B50168F3
:104FE000406A0968890616D40021C184016851E825
:104FF000051F026821F0800142E80513002BF5D15E
:10500000016851E8031F026841F0400142E80313C0
:10501000002BF5D180BDFEF7D5FE80BD80B5406A7E
:10502000FEF7E0FE80BD000080B582B090F842102F
:1050300022291ED18268B2F5805F02D10169002960
:105040004AD0816AB2F5805F07D00AB9026922B1FD
:105050000268526802F07F0201E0026852680A703A
:105060000121826A11448162C18D01390A04C1851E
:1050700001D002B080BD0168CA6822F02002CA6077
:10508000CA6822F48072CA604A6922F001024A6149
:10509000202180F8421000214163026B012A23D1B4
:1050A000016300BF016851E8031F026821F010018D
:1050B00042E80313002BF5D101680A68D20606D531
:1050C000002201920A680192496801910199818D3B
:1050D000FEF7ACFB02B080BD0168826A49686FF3DD
:1050E0005F2111800221BCE7FEF70CFE02B080BDFB
:1050F00040F2E420C2F20000FEF79CBBFEE7000095
:1051000010B540F28004C2F200040020607040F646
:105110000000C4F2010040210022FDF76FF940F2C7
:105120009C21C2F2000140F610600968C0F61060D0
:105130004FF46162C4F80A00C4F80E008A63CA63BF
:105140004A630A64C4F81200C4F8160010BD0000D7
:105150002DE9F04F83B040F20C20C2F2000000684D
:1051600040F25422416AC2F2000240F280084942F1
:105170001268C2F20008A8F81A10516A40F600043A
:10518000A8F81C1000214162516298F80400C4F292
:10519000010400F0F70520460121FDF721F945EA59
:1051A000C00088F8040098F80400022100F0FB0514
:1051B0002046FDF715F945EA800088F8040098F8C4
:1051C0000400042100F0FD052046FDF709F945EA39
:1051D000400088F8040098F80400082100F0FE055B
:1051E0002046FDF7FDF8284388F8040098F80100F0
:1051F000002800F0CD8098F80400000704BF0020CC
:1052000088F8020098F8040000F00F00062803D187
:10521000002088F8020004E098F80200002800F05E
:10522000BB8098F8020088F8030098F80100002875
:1052300000F0AE80B8F91A0098F8059040F200042A
:10524000A9EB000A5046C2F2000401F005FC2568F3
:105250006668D8F82440074620460295019601F07A
:10526000FBFB0146304601F00FFC06462846394656
:1052700001F00AFC314601F0D3FCD8F82810D8F828
:1052800020B00646084601F0E7FB0146584601F00B
:10529000FBFB314601F062FB01F0C2FB0090B8F964
:1052A0001C00C8F824A0A9EB00052846C8F828402F
:1052B00001F0D2FBD8F82C400646204601F0CCFB8A
:1052C0000146019801F0E0FB07460298314601F0E3
:1052D000DBFB394601F0A4FCD8F83010064608463E
:1052E00001F0BAFB0146584601F0CEFB314601F011
:1052F00035FB01F095FB009F6FF4A0214FF6FE7285
:1053000001EB0743CFF6F5729342C8F82C50C8F86A
:10531000304004D8B8F80A303B44A8F80A3001EB12
:105320000041914204D8B8F810100844A8F81000C1
:10533000B8F80A00B0F5616F84BF4FF46160A8F857
:105340000A00B8F81010C208B1F5616F84BF4FF4BD
:105350006161A8F810107C2A4FEAD1029CBF4FF47B
:105360007A70A8F80A007C2A40F29C229CBF4FF475
:105370007A71A8F81010C2F200021268506311642A
:10538000D8F80C20A8F81200C8F81420A8F81810B3
:1053900003B0BDE8F08F00BF98F80300FD2804BFFC
:1053A000FE2088F8020098F80300032804BF0220BA
:1053B00088F8020098F90200C11C0BD0032819D00C
:1053C00000287FF42EAF98F8070088F8050088F8C9
:1053D000060026E798F8010000283FF422AF98F86D
:1053E0000700AB214143490A88F8051088F80600F8
:1053F00017E700BF98F8010000283FF412AF98F8B3
:105400000700AB214143490A88F8061088F80500D7
:1054100007E700002DE9F04385B0044600780D460B
:1054200044382F2800F2DC81DFE810F03000DA0188
:10543000DA01DA01DA014E00DA01DA01DA01DA0121
:10544000DA01DA01FE00DA01DA01DA01DA01DA0161
:10545000DA01DA01DA01DA01DA01DA01DA01DA0174
:10546000DA01DA01DA01DA01DA01DA011C012A01D2
:10547000DA01DA01DA01DA01DA01DA01DA016C00C3
:10548000DA01DA01AE00DA01DA01D80040F2800672
:10549000C2F2000647F26E71601C06F12002C0F6EF
:1054A0000001FAF7ADFF306A01F02CFA40F2F43651
:1054B000C2F2000602460B46CDA13046FAF79CFE2A
:1054C000304600F059FB8BE140F20006C2F20006C4
:1054D00047F26E71601C321DC0F60001FAF790FFB2
:1054E000706801F00FFA40F2F436C2F2000602468C
:1054F0000B46C5A13046FAF77FFE304600F03CFB74
:105500006EE100BF47F26B71601CC0F600010DF147
:105510001302FAF775FF9DF8136040F28007C2F29C
:1055200000070120FE71787040F60000C4F201000F
:1055300040210122FCF762FF40F29C223046C2F279
:105540000002FE71642E28BF642012684FF4FA63D3
:105550007871B871002103EB0010F9609163D16399
:10556000788138825063106478827961388340F2A0
:10557000F437C2F20007B0A138463246FAF73CFED3
:10558000384600F0F9FA2BE160783138042800F24F
:105590001B81DFE800F0038BABCBEB0040F2800611
:1055A000C2F2000647F26B71E01C06F10A02C0F677
:1055B0000001FAF725FF40F29C20C2F20000728938
:1055C000006847F20E71426340F2F430C2F200000C
:1055D000C0F60001FAF710FEF0E000BF40F28006CE
:1055E000C2F200060020707040F60000C4F2010014
:1055F00040210022FCF702FF40F29C21C2F2000190
:1056000040F610600968C0F610604FF46162C6F899
:105610000A00C6F80E008A63CA634A630A64C6F8C1
:105620001200C6F81600DBE040F2000647F26E7189
:10563000C2F20006601CC0F600013246FAF7E0FE36
:10564000306801F05FF940F2F436C2F2000602461B
:105650000B4673A13046FAF7CFFD304600F08CFAC6
:10566000BEE000BF40F20C20C2F200000068002142
:10567000416240F25420C2F2000000684162AFE093
:1056800040F28000C2F20000C18940F2F436428A42
:105690008389078AC2F2000600916EA13046019705
:1056A000FAF7AAFD304600F067FA99E040F280066A
:1056B000C2F2000647F26B71E01C06F10C02C0F664
:1056C0000001FAF79DFE40F29C20C2F20000B28970
:1056D000006847F21F71826340F2F430C2F20000AA
:1056E000C0F60001FAF788FD68E000BF40F28006CE
:1056F000C2F2000647F26B71E01C06F10E02C0F622
:105700000001FAF77DFE40F29C20C2F20000F2890F
:10571000006847F23071C26340F2F430C2F2000018
:10572000C0F60001FAF768FD48E000BF40F28006CD
:10573000C2F2000647F26B71E01C06F11002C0F6DF
:105740000001FAF75DFE40F29C20C2F20000328AAE
:10575000006847F24171026440F2F430C2F2000086
:10576000C0F60001FAF748FD28E000BF40F2000152
:10577000C2F20001D1E9000601F0C4F881463046CA
:10578000884601F0BFF8064640F28000C2F20000F1
:10579000006A0F4601F0B6F88C46029040F2F430F1
:1057A00047F25271C2F20000C0F600014A46434679
:1057B000CDE90067CDF80CC0FAF71EFD40F2F430D9
:1057C000C2F2000000F0D8F940F28000C2F20000FE
:1057D000D0F80A10D0F80E20C0F81210C0F8162029
:1057E00020462946FAF7EFFE05B0BDE8F08300BF7A
:1057F00073657420446572697661746976653D25C8
:1058000066206F6B210A000073657420496E746511
:105810006772616C3D2566206F6B210A00000000F5
:105820007365742050726F706F7274696F6E3D256E
:1058300066206F6B210A00007A686978696E6720BC
:105840002C7365742073706565643D2564206F6BEF
:10585000210A000050574D313A25642C50574D32E3
:105860003A25642C50574D333A25642C50574D340B
:105870003A25640A000000009EB0FCF7D9FD002420
:105880000120CDE90544CDE90344009004904FF494
:10589000E0104FF48031022509906846CDE90114EB
:1058A000CDE90751FCF774FF20B1EFF3108072B619
:1058B000FEE700BF0F20CDE919054FF48060CDE968
:1058C0001C0419A802211B94FCF75CFE20B1EFF325
:1058D000108072B6FEE700BFFEF7B6FBFEF7A4FB32
:1058E000FEF738FEFEF756FCFEF778FDFEF710FDDA
:1058F000FEF740FD0E2000210022FCF707FE0E20DF
:10590000FCF7F4FD252007210022FCF7FFFD2520F0
:10591000FCF7ECFD4FF4FA70FCF762FB40F6004434
:10592000C4F20104A4F58065284620210022FCF77A
:1059300065FD284640210022FCF760FD28468021B5
:105940000022FCF75BFD20464FF480510022FCF75B
:1059500055FD20464FF400510022FCF74FFD204634
:105960004FF480410022FCF749FD20464FF40041EE
:105970000022FCF743FD40F2E42040F28801C2F22D
:105980000000C2F200010122FEF792F940F20C245D
:10599000C2F2000420463C21FDF702FC40F25425EF
:1059A000C2F2000528463C21FDF7FAFB2046FDF730
:1059B000CDF92846FDF7CAF940F29C24C2F2000452
:1059C0002046FDF793F920460021FDF777FE20469B
:1059D0000421FDF773FE20460821FDF76FFE2046E7
:1059E0000C21FDF76BFE21480DF1040C00901FA067
:1059F000031D0ECB8CE80E00018A807CADF81010E0
:105A00008DF81200684600F0B7F84FF4FA70FCF712
:105A1000E7FAFEF71DFEFEF7BFFD40F2800540F2FB
:105A2000780640F2B504C2F20005C2F20006C2F2E6
:105A3000000400BF287860B10520FCF7D1FA317866
:105A40002F78B94204D1002720462F70FFF7E2FCDF
:105A50003770FCF7D9FC7168401AB0F57A7FE9D944
:105A6000FCF7D2FC706000F00BF8E3E748616E646D
:105A7000207265737461727465642C696E20000015
:105A8000F0B587B040F28000C2F20000068AB0F99B
:105A90001C5042898389B0F91A10C78990F804C054
:105AA00044798079CDE9036540F2F435C2F200050E
:105AB0008DE89200059019A12846CDF818C0FAF794
:105AC0009BFB284600F058F824A2002000210C235C
:105AD000FFF7E2F940F20001C2F20001D1E900044F
